{
  "contractName": "CandidateOperations",
  "abi": [
    {
      "anonymous": false,
      "inputs": [
        {
          "indexed": true,
          "internalType": "bytes32",
          "name": "role",
          "type": "bytes32"
        },
        {
          "indexed": true,
          "internalType": "bytes32",
          "name": "previousAdminRole",
          "type": "bytes32"
        },
        {
          "indexed": true,
          "internalType": "bytes32",
          "name": "newAdminRole",
          "type": "bytes32"
        }
      ],
      "name": "RoleAdminChanged",
      "type": "event"
    },
    {
      "anonymous": false,
      "inputs": [
        {
          "indexed": true,
          "internalType": "bytes32",
          "name": "role",
          "type": "bytes32"
        },
        {
          "indexed": true,
          "internalType": "address",
          "name": "account",
          "type": "address"
        },
        {
          "indexed": true,
          "internalType": "address",
          "name": "sender",
          "type": "address"
        }
      ],
      "name": "RoleGranted",
      "type": "event"
    },
    {
      "anonymous": false,
      "inputs": [
        {
          "indexed": true,
          "internalType": "bytes32",
          "name": "role",
          "type": "bytes32"
        },
        {
          "indexed": true,
          "internalType": "address",
          "name": "account",
          "type": "address"
        },
        {
          "indexed": true,
          "internalType": "address",
          "name": "sender",
          "type": "address"
        }
      ],
      "name": "RoleRevoked",
      "type": "event"
    },
    {
      "inputs": [],
      "name": "ADMIN_ROLE",
      "outputs": [
        {
          "internalType": "bytes32",
          "name": "",
          "type": "bytes32"
        }
      ],
      "stateMutability": "view",
      "type": "function"
    },
    {
      "inputs": [],
      "name": "DEFAULT_ADMIN_ROLE",
      "outputs": [
        {
          "internalType": "bytes32",
          "name": "",
          "type": "bytes32"
        }
      ],
      "stateMutability": "view",
      "type": "function"
    },
    {
      "inputs": [],
      "name": "VOTER_ROLE",
      "outputs": [
        {
          "internalType": "bytes32",
          "name": "",
          "type": "bytes32"
        }
      ],
      "stateMutability": "view",
      "type": "function"
    },
    {
      "inputs": [
        {
          "internalType": "uint256",
          "name": "",
          "type": "uint256"
        }
      ],
      "name": "candidates",
      "outputs": [
        {
          "internalType": "string",
          "name": "name",
          "type": "string"
        },
        {
          "internalType": "uint256",
          "name": "voteCount",
          "type": "uint256"
        },
        {
          "internalType": "bool",
          "name": "isEliminated",
          "type": "bool"
        }
      ],
      "stateMutability": "view",
      "type": "function"
    },
    {
      "inputs": [
        {
          "internalType": "bytes32",
          "name": "role",
          "type": "bytes32"
        }
      ],
      "name": "getRoleAdmin",
      "outputs": [
        {
          "internalType": "bytes32",
          "name": "",
          "type": "bytes32"
        }
      ],
      "stateMutability": "view",
      "type": "function"
    },
    {
      "inputs": [
        {
          "internalType": "bytes32",
          "name": "role",
          "type": "bytes32"
        },
        {
          "internalType": "address",
          "name": "account",
          "type": "address"
        }
      ],
      "name": "grantRole",
      "outputs": [],
      "stateMutability": "nonpayable",
      "type": "function"
    },
    {
      "inputs": [
        {
          "internalType": "bytes32",
          "name": "role",
          "type": "bytes32"
        },
        {
          "internalType": "address",
          "name": "account",
          "type": "address"
        }
      ],
      "name": "hasRole",
      "outputs": [
        {
          "internalType": "bool",
          "name": "",
          "type": "bool"
        }
      ],
      "stateMutability": "view",
      "type": "function"
    },
    {
      "inputs": [
        {
          "internalType": "address",
          "name": "account",
          "type": "address"
        }
      ],
      "name": "isAdmin",
      "outputs": [
        {
          "internalType": "bool",
          "name": "",
          "type": "bool"
        }
      ],
      "stateMutability": "view",
      "type": "function"
    },
    {
      "inputs": [
        {
          "internalType": "address",
          "name": "account",
          "type": "address"
        }
      ],
      "name": "isVoter",
      "outputs": [
        {
          "internalType": "bool",
          "name": "",
          "type": "bool"
        }
      ],
      "stateMutability": "view",
      "type": "function"
    },
    {
      "inputs": [],
      "name": "onlyAdmin",
      "outputs": [],
      "stateMutability": "view",
      "type": "function"
    },
    {
      "inputs": [],
      "name": "onlyVoter",
      "outputs": [],
      "stateMutability": "view",
      "type": "function"
    },
    {
      "inputs": [
        {
          "internalType": "bytes32",
          "name": "role",
          "type": "bytes32"
        },
        {
          "internalType": "address",
          "name": "account",
          "type": "address"
        }
      ],
      "name": "renounceRole",
      "outputs": [],
      "stateMutability": "nonpayable",
      "type": "function"
    },
    {
      "inputs": [
        {
          "internalType": "bytes32",
          "name": "role",
          "type": "bytes32"
        },
        {
          "internalType": "address",
          "name": "account",
          "type": "address"
        }
      ],
      "name": "revokeRole",
      "outputs": [],
      "stateMutability": "nonpayable",
      "type": "function"
    },
    {
      "inputs": [
        {
          "internalType": "bytes4",
          "name": "interfaceId",
          "type": "bytes4"
        }
      ],
      "name": "supportsInterface",
      "outputs": [
        {
          "internalType": "bool",
          "name": "",
          "type": "bool"
        }
      ],
      "stateMutability": "view",
      "type": "function"
    },
    {
      "inputs": [
        {
          "internalType": "string",
          "name": "name",
          "type": "string"
        }
      ],
      "name": "addCandidate",
      "outputs": [],
      "stateMutability": "nonpayable",
      "type": "function"
    },
    {
      "inputs": [],
      "name": "getAllCandidatesInfo",
      "outputs": [
        {
          "internalType": "string[]",
          "name": "names",
          "type": "string[]"
        }
      ],
      "stateMutability": "view",
      "type": "function"
    }
  ],
  "bytecode": "0x608060405234801561001057600080fd5b50611a0d806100206000396000f3fe608060405234801561001057600080fd5b50600436106101005760003560e01c806375b238fc11610097578063a7771ee311610066578063a7771ee3146102af578063a94015c8146102df578063d547741f146102fd578063e0de639f1461031957610100565b806375b238fc1461023957806391d1485414610257578063a217fddf14610287578063a5f7823e146102a557610100565b80633477ee2e116100d35780633477ee2e146101b157806336568abe146101e357806336eafe36146101ff578063462e91ec1461021d57610100565b806301ffc9a714610105578063248a9ca31461013557806324d7806c146101655780632f2ff15d14610195575b600080fd5b61011f600480360381019061011a9190610f42565b610323565b60405161012c9190610f8a565b60405180910390f35b61014f600480360381019061014a9190610fdb565b61039d565b60405161015c9190611017565b60405180910390f35b61017f600480360381019061017a9190611090565b6103bc565b60405161018c9190610f8a565b60405180910390f35b6101af60048036038101906101aa91906110bd565b6103ef565b005b6101cb60048036038101906101c69190611133565b610410565b6040516101da93929190611208565b60405180910390f35b6101fd60048036038101906101f891906110bd565b6104df565b005b610207610562565b6040516102149190611352565b60405180910390f35b610237600480360381019061023291906114a9565b6106ac565b005b61024161071b565b60405161024e9190611017565b60405180910390f35b610271600480360381019061026c91906110bd565b61073f565b60405161027e9190610f8a565b60405180910390f35b61028f6107a9565b60405161029c9190611017565b60405180910390f35b6102ad6107b0565b005b6102c960048036038101906102c49190611090565b61081b565b6040516102d69190610f8a565b60405180910390f35b6102e761084e565b6040516102f49190611017565b60405180910390f35b610317600480360381019061031291906110bd565b610872565b005b610321610893565b005b60007f7965db0b000000000000000000000000000000000000000000000000000000007bffffffffffffffffffffffffffffffffffffffffffffffffffffffff1916827bffffffffffffffffffffffffffffffffffffffffffffffffffffffff191614806103965750610395826108fe565b5b9050919050565b6000806000838152602001908152602001600020600101549050919050565b60006103e87fa49807205ce4d355092ef5a8a18f56e8913cf4a201fbe287825b095693c217758361073f565b9050919050565b6103f88261039d565b61040181610968565b61040b838361097c565b505050565b6001818154811061042057600080fd5b906000526020600020906004020160009150905080600001805461044390611521565b80601f016020809104026020016040519081016040528092919081815260200182805461046f90611521565b80156104bc5780601f10610491576101008083540402835291602001916104bc565b820191906000526020600020905b81548152906001019060200180831161049f57829003601f168201915b5050505050908060010154908060020160009054906101000a900460ff16905083565b6104e7610a5c565b73ffffffffffffffffffffffffffffffffffffffff168173ffffffffffffffffffffffffffffffffffffffff1614610554576040517f08c379a000000000000000000000000000000000000000000000000000000000815260040161054b906115c4565b60405180910390fd5b61055e8282610a64565b5050565b606060018054905067ffffffffffffffff8111156105835761058261137e565b5b6040519080825280602002602001820160405280156105b657816020015b60608152602001906001900390816105a15790505b50905060005b6001805490508110156106a857600181815481106105dd576105dc6115e4565b5b906000526020600020906004020160000180546105f990611521565b80601f016020809104026020016040519081016040528092919081815260200182805461062590611521565b80156106725780601f1061064757610100808354040283529160200191610672565b820191906000526020600020905b81548152906001019060200180831161065557829003601f168201915b505050505082828151811061068a576106896115e4565b5b602002602001018190525080806106a090611642565b9150506105bc565b5090565b6106b46107b0565b6000600180816001815401808255809150500390600052602060002090600402019050818160000190805190602001906106ef929190610e33565b506000816001018190555060008160020160006101000a81548160ff0219169083151502179055505050565b7fa49807205ce4d355092ef5a8a18f56e8913cf4a201fbe287825b095693c2177581565b600080600084815260200190815260200160002060000160008373ffffffffffffffffffffffffffffffffffffffff1673ffffffffffffffffffffffffffffffffffffffff16815260200190815260200160002060009054906101000a900460ff16905092915050565b6000801b81565b6107da7fa49807205ce4d355092ef5a8a18f56e8913cf4a201fbe287825b095693c217753361073f565b610819576040517f08c379a0000000000000000000000000000000000000000000000000000000008152600401610810906116d6565b60405180910390fd5b565b60006108477f72c3eec1760bf69946625c2d4fb8e44e2c806345041960b434674fb9ab3976cf8361073f565b9050919050565b7f72c3eec1760bf69946625c2d4fb8e44e2c806345041960b434674fb9ab3976cf81565b61087b8261039d565b61088481610968565b61088e8383610a64565b505050565b6108bd7f72c3eec1760bf69946625c2d4fb8e44e2c806345041960b434674fb9ab3976cf3361073f565b6108fc576040517f08c379a00000000000000000000000000000000000000000000000000000000081526004016108f390611742565b60405180910390fd5b565b60007f01ffc9a7000000000000000000000000000000000000000000000000000000007bffffffffffffffffffffffffffffffffffffffffffffffffffffffff1916827bffffffffffffffffffffffffffffffffffffffffffffffffffffffff1916149050919050565b61097981610974610a5c565b610b45565b50565b610986828261073f565b610a5857600160008084815260200190815260200160002060000160008373ffffffffffffffffffffffffffffffffffffffff1673ffffffffffffffffffffffffffffffffffffffff16815260200190815260200160002060006101000a81548160ff0219169083151502179055506109fd610a5c565b73ffffffffffffffffffffffffffffffffffffffff168173ffffffffffffffffffffffffffffffffffffffff16837f2f8788117e7eff1d82e926ec794901d17c78024a50270940304540a733656f0d60405160405180910390a45b5050565b600033905090565b610a6e828261073f565b15610b4157600080600084815260200190815260200160002060000160008373ffffffffffffffffffffffffffffffffffffffff1673ffffffffffffffffffffffffffffffffffffffff16815260200190815260200160002060006101000a81548160ff021916908315150217905550610ae6610a5c565b73ffffffffffffffffffffffffffffffffffffffff168173ffffffffffffffffffffffffffffffffffffffff16837ff6391f5c32d9c69d2a47ea670b442974b53935d1edc7fd64eb21e047a839171b60405160405180910390a45b5050565b610b4f828261073f565b610bc657610b5c81610bca565b610b6a8360001c6020610bf7565b604051602001610b7b929190611836565b6040516020818303038152906040526040517f08c379a0000000000000000000000000000000000000000000000000000000008152600401610bbd9190611870565b60405180910390fd5b5050565b6060610bf08273ffffffffffffffffffffffffffffffffffffffff16601460ff16610bf7565b9050919050565b606060006002836002610c0a9190611892565b610c1491906118ec565b67ffffffffffffffff811115610c2d57610c2c61137e565b5b6040519080825280601f01601f191660200182016040528015610c5f5781602001600182028036833780820191505090505b5090507f300000000000000000000000000000000000000000000000000000000000000081600081518110610c9757610c966115e4565b5b60200101907effffffffffffffffffffffffffffffffffffffffffffffffffffffffffffff1916908160001a9053507f780000000000000000000000000000000000000000000000000000000000000081600181518110610cfb57610cfa6115e4565b5b60200101907effffffffffffffffffffffffffffffffffffffffffffffffffffffffffffff1916908160001a90535060006001846002610d3b9190611892565b610d4591906118ec565b90505b6001811115610de5577f3031323334353637383961626364656600000000000000000000000000000000600f861660108110610d8757610d866115e4565b5b1a60f81b828281518110610d9e57610d9d6115e4565b5b60200101907effffffffffffffffffffffffffffffffffffffffffffffffffffffffffffff1916908160001a905350600485901c945080610dde90611942565b9050610d48565b5060008414610e29576040517f08c379a0000000000000000000000000000000000000000000000000000000008152600401610e20906119b7565b60405180910390fd5b8091505092915050565b828054610e3f90611521565b90600052602060002090601f016020900481019282610e615760008555610ea8565b82601f10610e7a57805160ff1916838001178555610ea8565b82800160010185558215610ea8579182015b82811115610ea7578251825591602001919060010190610e8c565b5b509050610eb59190610eb9565b5090565b5b80821115610ed2576000816000905550600101610eba565b5090565b6000604051905090565b600080fd5b600080fd5b60007fffffffff0000000000000000000000000000000000000000000000000000000082169050919050565b610f1f81610eea565b8114610f2a57600080fd5b50565b600081359050610f3c81610f16565b92915050565b600060208284031215610f5857610f57610ee0565b5b6000610f6684828501610f2d565b91505092915050565b60008115159050919050565b610f8481610f6f565b82525050565b6000602082019050610f9f6000830184610f7b565b92915050565b6000819050919050565b610fb881610fa5565b8114610fc357600080fd5b50565b600081359050610fd581610faf565b92915050565b600060208284031215610ff157610ff0610ee0565b5b6000610fff84828501610fc6565b91505092915050565b61101181610fa5565b82525050565b600060208201905061102c6000830184611008565b92915050565b600073ffffffffffffffffffffffffffffffffffffffff82169050919050565b600061105d82611032565b9050919050565b61106d81611052565b811461107857600080fd5b50565b60008135905061108a81611064565b92915050565b6000602082840312156110a6576110a5610ee0565b5b60006110b48482850161107b565b91505092915050565b600080604083850312156110d4576110d3610ee0565b5b60006110e285828601610fc6565b92505060206110f38582860161107b565b9150509250929050565b6000819050919050565b611110816110fd565b811461111b57600080fd5b50565b60008135905061112d81611107565b92915050565b60006020828403121561114957611148610ee0565b5b60006111578482850161111e565b91505092915050565b600081519050919050565b600082825260208201905092915050565b60005b8381101561119a57808201518184015260208101905061117f565b838111156111a9576000848401525b50505050565b6000601f19601f8301169050919050565b60006111cb82611160565b6111d5818561116b565b93506111e581856020860161117c565b6111ee816111af565b840191505092915050565b611202816110fd565b82525050565b6000606082019050818103600083015261122281866111c0565b905061123160208301856111f9565b61123e6040830184610f7b565b949350505050565b600081519050919050565b600082825260208201905092915050565b6000819050602082019050919050565b600082825260208201905092915050565b600061128e82611160565b6112988185611272565b93506112a881856020860161117c565b6112b1816111af565b840191505092915050565b60006112c88383611283565b905092915050565b6000602082019050919050565b60006112e882611246565b6112f28185611251565b93508360208202850161130485611262565b8060005b85811015611340578484038952815161132185826112bc565b945061132c836112d0565b925060208a01995050600181019050611308565b50829750879550505050505092915050565b6000602082019050818103600083015261136c81846112dd565b905092915050565b600080fd5b600080fd5b7f4e487b7100000000000000000000000000000000000000000000000000000000600052604160045260246000fd5b6113b6826111af565b810181811067ffffffffffffffff821117156113d5576113d461137e565b5b80604052505050565b60006113e8610ed6565b90506113f482826113ad565b919050565b600067ffffffffffffffff8211156114145761141361137e565b5b61141d826111af565b9050602081019050919050565b82818337600083830152505050565b600061144c611447846113f9565b6113de565b90508281526020810184848401111561146857611467611379565b5b61147384828561142a565b509392505050565b600082601f8301126114905761148f611374565b5b81356114a0848260208601611439565b91505092915050565b6000602082840312156114bf576114be610ee0565b5b600082013567ffffffffffffffff8111156114dd576114dc610ee5565b5b6114e98482850161147b565b91505092915050565b7f4e487b7100000000000000000000000000000000000000000000000000000000600052602260045260246000fd5b6000600282049050600182168061153957607f821691505b60208210810361154c5761154b6114f2565b5b50919050565b7f416363657373436f6e74726f6c3a2063616e206f6e6c792072656e6f756e636560008201527f20726f6c657320666f722073656c660000000000000000000000000000000000602082015250565b60006115ae602f8361116b565b91506115b982611552565b604082019050919050565b600060208201905081810360008301526115dd816115a1565b9050919050565b7f4e487b7100000000000000000000000000000000000000000000000000000000600052603260045260246000fd5b7f4e487b7100000000000000000000000000000000000000000000000000000000600052601160045260246000fd5b600061164d826110fd565b91507fffffffffffffffffffffffffffffffffffffffffffffffffffffffffffffffff820361167f5761167e611613565b5b600182019050919050565b7f4e41000000000000000000000000000000000000000000000000000000000000600082015250565b60006116c060028361116b565b91506116cb8261168a565b602082019050919050565b600060208201905081810360008301526116ef816116b3565b9050919050565b7f4e56000000000000000000000000000000000000000000000000000000000000600082015250565b600061172c60028361116b565b9150611737826116f6565b602082019050919050565b6000602082019050818103600083015261175b8161171f565b9050919050565b600081905092915050565b7f416363657373436f6e74726f6c3a206163636f756e7420000000000000000000600082015250565b60006117a3601783611762565b91506117ae8261176d565b601782019050919050565b60006117c482611160565b6117ce8185611762565b93506117de81856020860161117c565b80840191505092915050565b7f206973206d697373696e6720726f6c6520000000000000000000000000000000600082015250565b6000611820601183611762565b915061182b826117ea565b601182019050919050565b600061184182611796565b915061184d82856117b9565b915061185882611813565b915061186482846117b9565b91508190509392505050565b6000602082019050818103600083015261188a81846111c0565b905092915050565b600061189d826110fd565b91506118a8836110fd565b9250817fffffffffffffffffffffffffffffffffffffffffffffffffffffffffffffffff04831182151516156118e1576118e0611613565b5b828202905092915050565b60006118f7826110fd565b9150611902836110fd565b9250827fffffffffffffffffffffffffffffffffffffffffffffffffffffffffffffffff0382111561193757611936611613565b5b828201905092915050565b600061194d826110fd565b9150600082036119605761195f611613565b5b600182039050919050565b7f537472696e67733a20686578206c656e67746820696e73756666696369656e74600082015250565b60006119a160208361116b565b91506119ac8261196b565b602082019050919050565b600060208201905081810360008301526119d081611994565b905091905056fea264697066735822122059caabf7c74c5ea98fd37b09743807b8eba0d376801e3fecdfc8d7ed48b9e21064736f6c634300080e0033",
  "immutableReferences": {},
  "source": "// SPDX-License-Identifier: GPL-3.0\npragma solidity >=0.7.0 <0.9.0;\n\nimport \"./RoleBasedControl.sol\";\n\ncontract CandidateOperations is RoleBasedControl {\n\n    struct Candidate {\n        string name;\n        uint voteCount;\n        bool isEliminated;\n        mapping(address => uint) votersWhoVotedInRoundX;\n    }\n\n    Candidate[] public candidates;\n\n    function addCandidate(string memory name) public {\n        onlyAdmin();\n        Candidate storage newCandidate = candidates.push();\n        newCandidate.name = name;\n        newCandidate.voteCount = 0;\n        newCandidate.isEliminated = false;\n    }\n\n    function getAllCandidatesInfo() public view returns (string[] memory names) {\n        names = new string[](candidates.length);\n        for (uint i = 0; i < candidates.length; i++) {\n            names[i] = candidates[i].name;\n        }\n    }\n}\n",
  "sourcePath": "/Users/ivanchow/Desktop/Projects/goodvoting/contracts/CandidateOperations.sol",
  "compiler": {
    "name": "solc",
    "version": "0.8.14+commit.80d49f37.Emscripten.clang"
  },
  "schemaVersion": "3.4.13",
  "updatedAt": "2023-05-22T15:13:39.814Z",
  "devdoc": {
    "kind": "dev",
    "methods": {
      "getRoleAdmin(bytes32)": {
        "details": "Returns the admin role that controls `role`. See {grantRole} and {revokeRole}. To change a role's admin, use {_setRoleAdmin}."
      },
      "grantRole(bytes32,address)": {
        "details": "Grants `role` to `account`. If `account` had not been already granted `role`, emits a {RoleGranted} event. Requirements: - the caller must have ``role``'s admin role. May emit a {RoleGranted} event."
      },
      "hasRole(bytes32,address)": {
        "details": "Returns `true` if `account` has been granted `role`."
      },
      "renounceRole(bytes32,address)": {
        "details": "Revokes `role` from the calling account. Roles are often managed via {grantRole} and {revokeRole}: this function's purpose is to provide a mechanism for accounts to lose their privileges if they are compromised (such as when a trusted device is misplaced). If the calling account had been revoked `role`, emits a {RoleRevoked} event. Requirements: - the caller must be `account`. May emit a {RoleRevoked} event."
      },
      "revokeRole(bytes32,address)": {
        "details": "Revokes `role` from `account`. If `account` had been granted `role`, emits a {RoleRevoked} event. Requirements: - the caller must have ``role``'s admin role. May emit a {RoleRevoked} event."
      },
      "supportsInterface(bytes4)": {
        "details": "See {IERC165-supportsInterface}."
      }
    },
    "version": 1
  },
  "userdoc": {
    "kind": "user",
    "methods": {},
    "version": 1
  }
}