{
  "contractName": "RoleBasedControl",
  "abi": [
    {
      "anonymous": false,
      "inputs": [
        {
          "indexed": true,
          "internalType": "bytes32",
          "name": "role",
          "type": "bytes32"
        },
        {
          "indexed": true,
          "internalType": "bytes32",
          "name": "previousAdminRole",
          "type": "bytes32"
        },
        {
          "indexed": true,
          "internalType": "bytes32",
          "name": "newAdminRole",
          "type": "bytes32"
        }
      ],
      "name": "RoleAdminChanged",
      "type": "event"
    },
    {
      "anonymous": false,
      "inputs": [
        {
          "indexed": true,
          "internalType": "bytes32",
          "name": "role",
          "type": "bytes32"
        },
        {
          "indexed": true,
          "internalType": "address",
          "name": "account",
          "type": "address"
        },
        {
          "indexed": true,
          "internalType": "address",
          "name": "sender",
          "type": "address"
        }
      ],
      "name": "RoleGranted",
      "type": "event"
    },
    {
      "anonymous": false,
      "inputs": [
        {
          "indexed": true,
          "internalType": "bytes32",
          "name": "role",
          "type": "bytes32"
        },
        {
          "indexed": true,
          "internalType": "address",
          "name": "account",
          "type": "address"
        },
        {
          "indexed": true,
          "internalType": "address",
          "name": "sender",
          "type": "address"
        }
      ],
      "name": "RoleRevoked",
      "type": "event"
    },
    {
      "inputs": [],
      "name": "ADMIN_ROLE",
      "outputs": [
        {
          "internalType": "bytes32",
          "name": "",
          "type": "bytes32"
        }
      ],
      "stateMutability": "view",
      "type": "function"
    },
    {
      "inputs": [],
      "name": "DEFAULT_ADMIN_ROLE",
      "outputs": [
        {
          "internalType": "bytes32",
          "name": "",
          "type": "bytes32"
        }
      ],
      "stateMutability": "view",
      "type": "function"
    },
    {
      "inputs": [],
      "name": "VOTER_ROLE",
      "outputs": [
        {
          "internalType": "bytes32",
          "name": "",
          "type": "bytes32"
        }
      ],
      "stateMutability": "view",
      "type": "function"
    },
    {
      "inputs": [
        {
          "internalType": "bytes32",
          "name": "role",
          "type": "bytes32"
        }
      ],
      "name": "getRoleAdmin",
      "outputs": [
        {
          "internalType": "bytes32",
          "name": "",
          "type": "bytes32"
        }
      ],
      "stateMutability": "view",
      "type": "function"
    },
    {
      "inputs": [
        {
          "internalType": "bytes32",
          "name": "role",
          "type": "bytes32"
        },
        {
          "internalType": "address",
          "name": "account",
          "type": "address"
        }
      ],
      "name": "grantRole",
      "outputs": [],
      "stateMutability": "nonpayable",
      "type": "function"
    },
    {
      "inputs": [
        {
          "internalType": "bytes32",
          "name": "role",
          "type": "bytes32"
        },
        {
          "internalType": "address",
          "name": "account",
          "type": "address"
        }
      ],
      "name": "hasRole",
      "outputs": [
        {
          "internalType": "bool",
          "name": "",
          "type": "bool"
        }
      ],
      "stateMutability": "view",
      "type": "function"
    },
    {
      "inputs": [
        {
          "internalType": "bytes32",
          "name": "role",
          "type": "bytes32"
        },
        {
          "internalType": "address",
          "name": "account",
          "type": "address"
        }
      ],
      "name": "renounceRole",
      "outputs": [],
      "stateMutability": "nonpayable",
      "type": "function"
    },
    {
      "inputs": [
        {
          "internalType": "bytes32",
          "name": "role",
          "type": "bytes32"
        },
        {
          "internalType": "address",
          "name": "account",
          "type": "address"
        }
      ],
      "name": "revokeRole",
      "outputs": [],
      "stateMutability": "nonpayable",
      "type": "function"
    },
    {
      "inputs": [
        {
          "internalType": "bytes4",
          "name": "interfaceId",
          "type": "bytes4"
        }
      ],
      "name": "supportsInterface",
      "outputs": [
        {
          "internalType": "bool",
          "name": "",
          "type": "bool"
        }
      ],
      "stateMutability": "view",
      "type": "function"
    },
    {
      "inputs": [],
      "name": "onlyAdmin",
      "outputs": [],
      "stateMutability": "view",
      "type": "function"
    },
    {
      "inputs": [],
      "name": "onlyVoter",
      "outputs": [],
      "stateMutability": "view",
      "type": "function"
    },
    {
      "inputs": [
        {
          "internalType": "address",
          "name": "account",
          "type": "address"
        }
      ],
      "name": "isAdmin",
      "outputs": [
        {
          "internalType": "bool",
          "name": "",
          "type": "bool"
        }
      ],
      "stateMutability": "view",
      "type": "function"
    },
    {
      "inputs": [
        {
          "internalType": "address",
          "name": "account",
          "type": "address"
        }
      ],
      "name": "isVoter",
      "outputs": [
        {
          "internalType": "bool",
          "name": "",
          "type": "bool"
        }
      ],
      "stateMutability": "view",
      "type": "function"
    }
  ],
  "bytecode": "0x608060405234801561001057600080fd5b5061126b806100206000396000f3fe608060405234801561001057600080fd5b50600436106100cf5760003560e01c806391d148541161008c578063a7771ee311610066578063a7771ee314610212578063a94015c814610242578063d547741f14610260578063e0de639f1461027c576100cf565b806391d14854146101ba578063a217fddf146101ea578063a5f7823e14610208576100cf565b806301ffc9a7146100d4578063248a9ca31461010457806324d7806c146101345780632f2ff15d1461016457806336568abe1461018057806375b238fc1461019c575b600080fd5b6100ee60048036038101906100e99190610b6b565b610286565b6040516100fb9190610bb3565b60405180910390f35b61011e60048036038101906101199190610c04565b610300565b60405161012b9190610c40565b60405180910390f35b61014e60048036038101906101499190610cb9565b61031f565b60405161015b9190610bb3565b60405180910390f35b61017e60048036038101906101799190610ce6565b610352565b005b61019a60048036038101906101959190610ce6565b610373565b005b6101a46103f6565b6040516101b19190610c40565b60405180910390f35b6101d460048036038101906101cf9190610ce6565b61041a565b6040516101e19190610bb3565b60405180910390f35b6101f2610484565b6040516101ff9190610c40565b60405180910390f35b61021061048b565b005b61022c60048036038101906102279190610cb9565b6104f6565b6040516102399190610bb3565b60405180910390f35b61024a610529565b6040516102579190610c40565b60405180910390f35b61027a60048036038101906102759190610ce6565b61054d565b005b61028461056e565b005b60007f7965db0b000000000000000000000000000000000000000000000000000000007bffffffffffffffffffffffffffffffffffffffffffffffffffffffff1916827bffffffffffffffffffffffffffffffffffffffffffffffffffffffff191614806102f957506102f8826105d9565b5b9050919050565b6000806000838152602001908152602001600020600101549050919050565b600061034b7fa49807205ce4d355092ef5a8a18f56e8913cf4a201fbe287825b095693c217758361041a565b9050919050565b61035b82610300565b61036481610643565b61036e8383610657565b505050565b61037b610737565b73ffffffffffffffffffffffffffffffffffffffff168173ffffffffffffffffffffffffffffffffffffffff16146103e8576040517f08c379a00000000000000000000000000000000000000000000000000000000081526004016103df90610da9565b60405180910390fd5b6103f2828261073f565b5050565b7fa49807205ce4d355092ef5a8a18f56e8913cf4a201fbe287825b095693c2177581565b600080600084815260200190815260200160002060000160008373ffffffffffffffffffffffffffffffffffffffff1673ffffffffffffffffffffffffffffffffffffffff16815260200190815260200160002060009054906101000a900460ff16905092915050565b6000801b81565b6104b57fa49807205ce4d355092ef5a8a18f56e8913cf4a201fbe287825b095693c217753361041a565b6104f4576040517f08c379a00000000000000000000000000000000000000000000000000000000081526004016104eb90610e15565b60405180910390fd5b565b60006105227f72c3eec1760bf69946625c2d4fb8e44e2c806345041960b434674fb9ab3976cf8361041a565b9050919050565b7f72c3eec1760bf69946625c2d4fb8e44e2c806345041960b434674fb9ab3976cf81565b61055682610300565b61055f81610643565b610569838361073f565b505050565b6105987f72c3eec1760bf69946625c2d4fb8e44e2c806345041960b434674fb9ab3976cf3361041a565b6105d7576040517f08c379a00000000000000000000000000000000000000000000000000000000081526004016105ce90610e81565b60405180910390fd5b565b60007f01ffc9a7000000000000000000000000000000000000000000000000000000007bffffffffffffffffffffffffffffffffffffffffffffffffffffffff1916827bffffffffffffffffffffffffffffffffffffffffffffffffffffffff1916149050919050565b6106548161064f610737565b610820565b50565b610661828261041a565b61073357600160008084815260200190815260200160002060000160008373ffffffffffffffffffffffffffffffffffffffff1673ffffffffffffffffffffffffffffffffffffffff16815260200190815260200160002060006101000a81548160ff0219169083151502179055506106d8610737565b73ffffffffffffffffffffffffffffffffffffffff168173ffffffffffffffffffffffffffffffffffffffff16837f2f8788117e7eff1d82e926ec794901d17c78024a50270940304540a733656f0d60405160405180910390a45b5050565b600033905090565b610749828261041a565b1561081c57600080600084815260200190815260200160002060000160008373ffffffffffffffffffffffffffffffffffffffff1673ffffffffffffffffffffffffffffffffffffffff16815260200190815260200160002060006101000a81548160ff0219169083151502179055506107c1610737565b73ffffffffffffffffffffffffffffffffffffffff168173ffffffffffffffffffffffffffffffffffffffff16837ff6391f5c32d9c69d2a47ea670b442974b53935d1edc7fd64eb21e047a839171b60405160405180910390a45b5050565b61082a828261041a565b6108a157610837816108a5565b6108458360001c60206108d2565b604051602001610856929190610fb3565b6040516020818303038152906040526040517f08c379a00000000000000000000000000000000000000000000000000000000081526004016108989190611037565b60405180910390fd5b5050565b60606108cb8273ffffffffffffffffffffffffffffffffffffffff16601460ff166108d2565b9050919050565b6060600060028360026108e59190611092565b6108ef91906110ec565b67ffffffffffffffff81111561090857610907611142565b5b6040519080825280601f01601f19166020018201604052801561093a5781602001600182028036833780820191505090505b5090507f30000000000000000000000000000000000000000000000000000000000000008160008151811061097257610971611171565b5b60200101907effffffffffffffffffffffffffffffffffffffffffffffffffffffffffffff1916908160001a9053507f7800000000000000000000000000000000000000000000000000000000000000816001815181106109d6576109d5611171565b5b60200101907effffffffffffffffffffffffffffffffffffffffffffffffffffffffffffff1916908160001a90535060006001846002610a169190611092565b610a2091906110ec565b90505b6001811115610ac0577f3031323334353637383961626364656600000000000000000000000000000000600f861660108110610a6257610a61611171565b5b1a60f81b828281518110610a7957610a78611171565b5b60200101907effffffffffffffffffffffffffffffffffffffffffffffffffffffffffffff1916908160001a905350600485901c945080610ab9906111a0565b9050610a23565b5060008414610b04576040517f08c379a0000000000000000000000000000000000000000000000000000000008152600401610afb90611215565b60405180910390fd5b8091505092915050565b600080fd5b60007fffffffff0000000000000000000000000000000000000000000000000000000082169050919050565b610b4881610b13565b8114610b5357600080fd5b50565b600081359050610b6581610b3f565b92915050565b600060208284031215610b8157610b80610b0e565b5b6000610b8f84828501610b56565b91505092915050565b60008115159050919050565b610bad81610b98565b82525050565b6000602082019050610bc86000830184610ba4565b92915050565b6000819050919050565b610be181610bce565b8114610bec57600080fd5b50565b600081359050610bfe81610bd8565b92915050565b600060208284031215610c1a57610c19610b0e565b5b6000610c2884828501610bef565b91505092915050565b610c3a81610bce565b82525050565b6000602082019050610c556000830184610c31565b92915050565b600073ffffffffffffffffffffffffffffffffffffffff82169050919050565b6000610c8682610c5b565b9050919050565b610c9681610c7b565b8114610ca157600080fd5b50565b600081359050610cb381610c8d565b92915050565b600060208284031215610ccf57610cce610b0e565b5b6000610cdd84828501610ca4565b91505092915050565b60008060408385031215610cfd57610cfc610b0e565b5b6000610d0b85828601610bef565b9250506020610d1c85828601610ca4565b9150509250929050565b600082825260208201905092915050565b7f416363657373436f6e74726f6c3a2063616e206f6e6c792072656e6f756e636560008201527f20726f6c657320666f722073656c660000000000000000000000000000000000602082015250565b6000610d93602f83610d26565b9150610d9e82610d37565b604082019050919050565b60006020820190508181036000830152610dc281610d86565b9050919050565b7f4e41000000000000000000000000000000000000000000000000000000000000600082015250565b6000610dff600283610d26565b9150610e0a82610dc9565b602082019050919050565b60006020820190508181036000830152610e2e81610df2565b9050919050565b7f4e56000000000000000000000000000000000000000000000000000000000000600082015250565b6000610e6b600283610d26565b9150610e7682610e35565b602082019050919050565b60006020820190508181036000830152610e9a81610e5e565b9050919050565b600081905092915050565b7f416363657373436f6e74726f6c3a206163636f756e7420000000000000000000600082015250565b6000610ee2601783610ea1565b9150610eed82610eac565b601782019050919050565b600081519050919050565b60005b83811015610f21578082015181840152602081019050610f06565b83811115610f30576000848401525b50505050565b6000610f4182610ef8565b610f4b8185610ea1565b9350610f5b818560208601610f03565b80840191505092915050565b7f206973206d697373696e6720726f6c6520000000000000000000000000000000600082015250565b6000610f9d601183610ea1565b9150610fa882610f67565b601182019050919050565b6000610fbe82610ed5565b9150610fca8285610f36565b9150610fd582610f90565b9150610fe18284610f36565b91508190509392505050565b6000601f19601f8301169050919050565b600061100982610ef8565b6110138185610d26565b9350611023818560208601610f03565b61102c81610fed565b840191505092915050565b600060208201905081810360008301526110518184610ffe565b905092915050565b6000819050919050565b7f4e487b7100000000000000000000000000000000000000000000000000000000600052601160045260246000fd5b600061109d82611059565b91506110a883611059565b9250817fffffffffffffffffffffffffffffffffffffffffffffffffffffffffffffffff04831182151516156110e1576110e0611063565b5b828202905092915050565b60006110f782611059565b915061110283611059565b9250827fffffffffffffffffffffffffffffffffffffffffffffffffffffffffffffffff0382111561113757611136611063565b5b828201905092915050565b7f4e487b7100000000000000000000000000000000000000000000000000000000600052604160045260246000fd5b7f4e487b7100000000000000000000000000000000000000000000000000000000600052603260045260246000fd5b60006111ab82611059565b9150600082036111be576111bd611063565b5b600182039050919050565b7f537472696e67733a20686578206c656e67746820696e73756666696369656e74600082015250565b60006111ff602083610d26565b915061120a826111c9565b602082019050919050565b6000602082019050818103600083015261122e816111f2565b905091905056fea26469706673582212201d6332ff11b18de2874a75a9e3995b7c1e31a9ce25d17fef7be1f77a63cf407464736f6c634300080e0033",
  "immutableReferences": {},
  "source": "// SPDX-License-Identifier: GPL-3.0\n\npragma solidity >=0.7.0 <0.9.0;\n\n//import \"@openzeppelin/contracts/access/AccessControl.sol\";\nimport \"../node_modules/@openzeppelin/contracts/access/AccessControl.sol\";\n\ncontract RoleBasedControl is AccessControl {\n    bytes32 public constant ADMIN_ROLE = keccak256(\"ADMIN_ROLE\");\n    bytes32 public constant VOTER_ROLE = keccak256(\"VOTER_ROLE\");\n\n    function onlyAdmin() public view {\n        require(hasRole(ADMIN_ROLE, msg.sender), \"NA\");\n    }\n\n    function onlyVoter() public view {\n        require(hasRole(VOTER_ROLE, msg.sender), \"NV\");\n    }\n\n    function isAdmin(address account) public view returns (bool) {\n        return hasRole(ADMIN_ROLE, account);\n    }\n\n    function isVoter(address account) public view returns (bool) {\n        return hasRole(VOTER_ROLE, account);\n    }\n}",
  "sourcePath": "/Users/ivanchow/Desktop/Projects/goodvoting/contracts/RoleBasedControl.sol",
  "compiler": {
    "name": "solc",
    "version": "0.8.14+commit.80d49f37.Emscripten.clang"
  },
  "schemaVersion": "3.4.13",
  "updatedAt": "2023-05-22T15:13:39.835Z",
  "devdoc": {
    "kind": "dev",
    "methods": {
      "getRoleAdmin(bytes32)": {
        "details": "Returns the admin role that controls `role`. See {grantRole} and {revokeRole}. To change a role's admin, use {_setRoleAdmin}."
      },
      "grantRole(bytes32,address)": {
        "details": "Grants `role` to `account`. If `account` had not been already granted `role`, emits a {RoleGranted} event. Requirements: - the caller must have ``role``'s admin role. May emit a {RoleGranted} event."
      },
      "hasRole(bytes32,address)": {
        "details": "Returns `true` if `account` has been granted `role`."
      },
      "renounceRole(bytes32,address)": {
        "details": "Revokes `role` from the calling account. Roles are often managed via {grantRole} and {revokeRole}: this function's purpose is to provide a mechanism for accounts to lose their privileges if they are compromised (such as when a trusted device is misplaced). If the calling account had been revoked `role`, emits a {RoleRevoked} event. Requirements: - the caller must be `account`. May emit a {RoleRevoked} event."
      },
      "revokeRole(bytes32,address)": {
        "details": "Revokes `role` from `account`. If `account` had been granted `role`, emits a {RoleRevoked} event. Requirements: - the caller must have ``role``'s admin role. May emit a {RoleRevoked} event."
      },
      "supportsInterface(bytes4)": {
        "details": "See {IERC165-supportsInterface}."
      }
    },
    "version": 1
  },
  "userdoc": {
    "kind": "user",
    "methods": {},
    "version": 1
  }
}