{
  "contractName": "VoterOperations",
  "abi": [
    {
      "anonymous": false,
      "inputs": [
        {
          "indexed": false,
          "internalType": "address[]",
          "name": "registeredVoters",
          "type": "address[]"
        }
      ],
      "name": "RegisteredVotersPrinted",
      "type": "event"
    },
    {
      "anonymous": false,
      "inputs": [
        {
          "indexed": true,
          "internalType": "bytes32",
          "name": "role",
          "type": "bytes32"
        },
        {
          "indexed": true,
          "internalType": "bytes32",
          "name": "previousAdminRole",
          "type": "bytes32"
        },
        {
          "indexed": true,
          "internalType": "bytes32",
          "name": "newAdminRole",
          "type": "bytes32"
        }
      ],
      "name": "RoleAdminChanged",
      "type": "event"
    },
    {
      "anonymous": false,
      "inputs": [
        {
          "indexed": true,
          "internalType": "bytes32",
          "name": "role",
          "type": "bytes32"
        },
        {
          "indexed": true,
          "internalType": "address",
          "name": "account",
          "type": "address"
        },
        {
          "indexed": true,
          "internalType": "address",
          "name": "sender",
          "type": "address"
        }
      ],
      "name": "RoleGranted",
      "type": "event"
    },
    {
      "anonymous": false,
      "inputs": [
        {
          "indexed": true,
          "internalType": "bytes32",
          "name": "role",
          "type": "bytes32"
        },
        {
          "indexed": true,
          "internalType": "address",
          "name": "account",
          "type": "address"
        },
        {
          "indexed": true,
          "internalType": "address",
          "name": "sender",
          "type": "address"
        }
      ],
      "name": "RoleRevoked",
      "type": "event"
    },
    {
      "anonymous": false,
      "inputs": [
        {
          "indexed": true,
          "internalType": "address",
          "name": "voter",
          "type": "address"
        }
      ],
      "name": "VoterRegistered",
      "type": "event"
    },
    {
      "inputs": [],
      "name": "ADMIN_ROLE",
      "outputs": [
        {
          "internalType": "bytes32",
          "name": "",
          "type": "bytes32"
        }
      ],
      "stateMutability": "view",
      "type": "function"
    },
    {
      "inputs": [],
      "name": "DEFAULT_ADMIN_ROLE",
      "outputs": [
        {
          "internalType": "bytes32",
          "name": "",
          "type": "bytes32"
        }
      ],
      "stateMutability": "view",
      "type": "function"
    },
    {
      "inputs": [],
      "name": "VOTER_ROLE",
      "outputs": [
        {
          "internalType": "bytes32",
          "name": "",
          "type": "bytes32"
        }
      ],
      "stateMutability": "view",
      "type": "function"
    },
    {
      "inputs": [
        {
          "internalType": "bytes32",
          "name": "role",
          "type": "bytes32"
        }
      ],
      "name": "getRoleAdmin",
      "outputs": [
        {
          "internalType": "bytes32",
          "name": "",
          "type": "bytes32"
        }
      ],
      "stateMutability": "view",
      "type": "function"
    },
    {
      "inputs": [
        {
          "internalType": "bytes32",
          "name": "role",
          "type": "bytes32"
        },
        {
          "internalType": "address",
          "name": "account",
          "type": "address"
        }
      ],
      "name": "grantRole",
      "outputs": [],
      "stateMutability": "nonpayable",
      "type": "function"
    },
    {
      "inputs": [
        {
          "internalType": "bytes32",
          "name": "role",
          "type": "bytes32"
        },
        {
          "internalType": "address",
          "name": "account",
          "type": "address"
        }
      ],
      "name": "hasRole",
      "outputs": [
        {
          "internalType": "bool",
          "name": "",
          "type": "bool"
        }
      ],
      "stateMutability": "view",
      "type": "function"
    },
    {
      "inputs": [
        {
          "internalType": "address",
          "name": "account",
          "type": "address"
        }
      ],
      "name": "isAdmin",
      "outputs": [
        {
          "internalType": "bool",
          "name": "",
          "type": "bool"
        }
      ],
      "stateMutability": "view",
      "type": "function"
    },
    {
      "inputs": [
        {
          "internalType": "address",
          "name": "account",
          "type": "address"
        }
      ],
      "name": "isVoter",
      "outputs": [
        {
          "internalType": "bool",
          "name": "",
          "type": "bool"
        }
      ],
      "stateMutability": "view",
      "type": "function"
    },
    {
      "inputs": [],
      "name": "onlyAdmin",
      "outputs": [],
      "stateMutability": "view",
      "type": "function"
    },
    {
      "inputs": [],
      "name": "onlyVoter",
      "outputs": [],
      "stateMutability": "view",
      "type": "function"
    },
    {
      "inputs": [
        {
          "internalType": "uint256",
          "name": "",
          "type": "uint256"
        }
      ],
      "name": "registeredVoters",
      "outputs": [
        {
          "internalType": "address",
          "name": "",
          "type": "address"
        }
      ],
      "stateMutability": "view",
      "type": "function"
    },
    {
      "inputs": [
        {
          "internalType": "bytes32",
          "name": "role",
          "type": "bytes32"
        },
        {
          "internalType": "address",
          "name": "account",
          "type": "address"
        }
      ],
      "name": "renounceRole",
      "outputs": [],
      "stateMutability": "nonpayable",
      "type": "function"
    },
    {
      "inputs": [
        {
          "internalType": "bytes32",
          "name": "role",
          "type": "bytes32"
        },
        {
          "internalType": "address",
          "name": "account",
          "type": "address"
        }
      ],
      "name": "revokeRole",
      "outputs": [],
      "stateMutability": "nonpayable",
      "type": "function"
    },
    {
      "inputs": [
        {
          "internalType": "bytes4",
          "name": "interfaceId",
          "type": "bytes4"
        }
      ],
      "name": "supportsInterface",
      "outputs": [
        {
          "internalType": "bool",
          "name": "",
          "type": "bool"
        }
      ],
      "stateMutability": "view",
      "type": "function"
    },
    {
      "inputs": [
        {
          "internalType": "address",
          "name": "",
          "type": "address"
        }
      ],
      "name": "voters",
      "outputs": [
        {
          "internalType": "uint256",
          "name": "weight",
          "type": "uint256"
        },
        {
          "internalType": "bool",
          "name": "isDelegated",
          "type": "bool"
        },
        {
          "internalType": "bool",
          "name": "isVoted",
          "type": "bool"
        },
        {
          "internalType": "bytes32",
          "name": "preferencesHash",
          "type": "bytes32"
        },
        {
          "internalType": "address",
          "name": "proxy",
          "type": "address"
        }
      ],
      "stateMutability": "view",
      "type": "function"
    },
    {
      "inputs": [
        {
          "internalType": "address",
          "name": "voter",
          "type": "address"
        }
      ],
      "name": "registerVoter",
      "outputs": [],
      "stateMutability": "nonpayable",
      "type": "function"
    },
    {
      "inputs": [
        {
          "internalType": "address",
          "name": "to",
          "type": "address"
        }
      ],
      "name": "grantProxy",
      "outputs": [],
      "stateMutability": "nonpayable",
      "type": "function"
    }
  ],
  "bytecode": "0x608060405234801561001057600080fd5b50611ec7806100206000396000f3fe608060405234801561001057600080fd5b506004361061010b5760003560e01c806375b238fc116100a2578063a5f7823e11610071578063a5f7823e146102e0578063a7771ee3146102ea578063a94015c81461031a578063d547741f14610338578063e0de639f146103545761010b565b806375b238fc1461024057806391d148541461025e578063a217fddf1461028e578063a3ec138d146102ac5761010b565b80632f2ff15d116100de5780632f2ff15d146101d057806336568abe146101ec57806338db6dd31461020857806372d777f5146102245761010b565b806301ffc9a7146101105780632436e06b14610140578063248a9ca31461017057806324d7806c146101a0575b600080fd5b61012a60048036038101906101259190611532565b61035e565b604051610137919061157a565b60405180910390f35b61015a600480360381019061015591906115cb565b6103d8565b6040516101679190611639565b60405180910390f35b61018a6004803603810190610185919061168a565b610417565b60405161019791906116c6565b60405180910390f35b6101ba60048036038101906101b5919061170d565b610436565b6040516101c7919061157a565b60405180910390f35b6101ea60048036038101906101e5919061173a565b610469565b005b6102066004803603810190610201919061173a565b61048a565b005b610222600480360381019061021d919061170d565b61050d565b005b61023e6004803603810190610239919061170d565b61087f565b005b610248610c7b565b60405161025591906116c6565b60405180910390f35b6102786004803603810190610273919061173a565b610c9f565b604051610285919061157a565b60405180910390f35b610296610d09565b6040516102a391906116c6565b60405180910390f35b6102c660048036038101906102c1919061170d565b610d10565b6040516102d7959493929190611789565b60405180910390f35b6102e8610d80565b005b61030460048036038101906102ff919061170d565b610deb565b604051610311919061157a565b60405180910390f35b610322610e1e565b60405161032f91906116c6565b60405180910390f35b610352600480360381019061034d919061173a565b610e42565b005b61035c610e63565b005b60007f7965db0b000000000000000000000000000000000000000000000000000000007bffffffffffffffffffffffffffffffffffffffffffffffffffffffff1916827bffffffffffffffffffffffffffffffffffffffffffffffffffffffff191614806103d157506103d082610ece565b5b9050919050565b600281815481106103e857600080fd5b906000526020600020016000915054906101000a900473ffffffffffffffffffffffffffffffffffffffff1681565b6000806000838152602001908152602001600020600101549050919050565b60006104627fa49807205ce4d355092ef5a8a18f56e8913cf4a201fbe287825b095693c2177583610c9f565b9050919050565b61047282610417565b61047b81610f38565b6104858383610f4c565b505050565b61049261102c565b73ffffffffffffffffffffffffffffffffffffffff168173ffffffffffffffffffffffffffffffffffffffff16146104ff576040517f08c379a00000000000000000000000000000000000000000000000000000000081526004016104f69061185f565b60405180910390fd5b6105098282611034565b5050565b610515610d80565b61053f7f72c3eec1760bf69946625c2d4fb8e44e2c806345041960b434674fb9ab3976cf82610c9f565b1561057f576040517f08c379a0000000000000000000000000000000000000000000000000000000008152600401610576906118cb565b60405180910390fd5b600160008273ffffffffffffffffffffffffffffffffffffffff1673ffffffffffffffffffffffffffffffffffffffff16815260200190815260200160002060010160019054906101000a900460ff161561060f576040517f08c379a000000000000000000000000000000000000000000000000000000000815260040161060690611937565b60405180910390fd5b6106397f72c3eec1760bf69946625c2d4fb8e44e2c806345041960b434674fb9ab3976cf82611115565b6000600160008373ffffffffffffffffffffffffffffffffffffffff1673ffffffffffffffffffffffffffffffffffffffff16815260200190815260200160002060010160006101000a81548160ff0219169083151502179055506000600160008373ffffffffffffffffffffffffffffffffffffffff1673ffffffffffffffffffffffffffffffffffffffff16815260200190815260200160002060010160016101000a81548160ff02191690831515021790555060018060008373ffffffffffffffffffffffffffffffffffffffff1673ffffffffffffffffffffffffffffffffffffffff16815260200190815260200160002060000181905550600067ffffffffffffffff81111561075157610750611957565b5b60405190808252806020026020018201604052801561077f5781602001602082028036833780820191505090505b50600160008373ffffffffffffffffffffffffffffffffffffffff1673ffffffffffffffffffffffffffffffffffffffff16815260200190815260200160002060020190805190602001906107d5929190611411565b506002819080600181540180825580915050600190039060005260206000200160009091909190916101000a81548173ffffffffffffffffffffffffffffffffffffffff021916908373ffffffffffffffffffffffffffffffffffffffff1602179055508073ffffffffffffffffffffffffffffffffffffffff167fb6be2187d059cc2a55fe29e0e503b566e1e0f8c8780096e185429350acffd3dd60405160405180910390a250565b610887610e63565b6108b17f72c3eec1760bf69946625c2d4fb8e44e2c806345041960b434674fb9ab3976cf82610c9f565b6108f0576040517f08c379a00000000000000000000000000000000000000000000000000000000081526004016108e7906118cb565b60405180910390fd5b6000600160003373ffffffffffffffffffffffffffffffffffffffff1673ffffffffffffffffffffffffffffffffffffffff16815260200190815260200160002090508060010160009054906101000a900460ff1615610985576040517f08c379a000000000000000000000000000000000000000000000000000000000815260040161097c906119d2565b60405180910390fd5b8060010160019054906101000a900460ff16156109d7576040517f08c379a00000000000000000000000000000000000000000000000000000000081526004016109ce90611937565b60405180910390fd5b3373ffffffffffffffffffffffffffffffffffffffff168273ffffffffffffffffffffffffffffffffffffffff1603610a45576040517f08c379a0000000000000000000000000000000000000000000000000000000008152600401610a3c90611a3e565b60405180910390fd5b5b600073ffffffffffffffffffffffffffffffffffffffff16600160008473ffffffffffffffffffffffffffffffffffffffff1673ffffffffffffffffffffffffffffffffffffffff16815260200190815260200160002060040160009054906101000a900473ffffffffffffffffffffffffffffffffffffffff1673ffffffffffffffffffffffffffffffffffffffff1614610bb457600160008373ffffffffffffffffffffffffffffffffffffffff1673ffffffffffffffffffffffffffffffffffffffff16815260200190815260200160002060040160009054906101000a900473ffffffffffffffffffffffffffffffffffffffff1691503373ffffffffffffffffffffffffffffffffffffffff168273ffffffffffffffffffffffffffffffffffffffff1603610baf576040517f08c379a0000000000000000000000000000000000000000000000000000000008152600401610ba690611aaa565b60405180910390fd5b610a46565b60018160010160006101000a81548160ff021916908315150217905550818160040160006101000a81548173ffffffffffffffffffffffffffffffffffffffff021916908373ffffffffffffffffffffffffffffffffffffffff1602179055506000600160008473ffffffffffffffffffffffffffffffffffffffff1673ffffffffffffffffffffffffffffffffffffffff16815260200190815260200160002090508160000154816000016000828254610c6f9190611af9565b92505081905550505050565b7fa49807205ce4d355092ef5a8a18f56e8913cf4a201fbe287825b095693c2177581565b600080600084815260200190815260200160002060000160008373ffffffffffffffffffffffffffffffffffffffff1673ffffffffffffffffffffffffffffffffffffffff16815260200190815260200160002060009054906101000a900460ff16905092915050565b6000801b81565b60016020528060005260406000206000915090508060000154908060010160009054906101000a900460ff16908060010160019054906101000a900460ff16908060030154908060040160009054906101000a900473ffffffffffffffffffffffffffffffffffffffff16905085565b610daa7fa49807205ce4d355092ef5a8a18f56e8913cf4a201fbe287825b095693c2177533610c9f565b610de9576040517f08c379a0000000000000000000000000000000000000000000000000000000008152600401610de090611b9b565b60405180910390fd5b565b6000610e177f72c3eec1760bf69946625c2d4fb8e44e2c806345041960b434674fb9ab3976cf83610c9f565b9050919050565b7f72c3eec1760bf69946625c2d4fb8e44e2c806345041960b434674fb9ab3976cf81565b610e4b82610417565b610e5481610f38565b610e5e8383611034565b505050565b610e8d7f72c3eec1760bf69946625c2d4fb8e44e2c806345041960b434674fb9ab3976cf33610c9f565b610ecc576040517f08c379a0000000000000000000000000000000000000000000000000000000008152600401610ec3906118cb565b60405180910390fd5b565b60007f01ffc9a7000000000000000000000000000000000000000000000000000000007bffffffffffffffffffffffffffffffffffffffffffffffffffffffff1916827bffffffffffffffffffffffffffffffffffffffffffffffffffffffff1916149050919050565b610f4981610f4461102c565b611123565b50565b610f568282610c9f565b61102857600160008084815260200190815260200160002060000160008373ffffffffffffffffffffffffffffffffffffffff1673ffffffffffffffffffffffffffffffffffffffff16815260200190815260200160002060006101000a81548160ff021916908315150217905550610fcd61102c565b73ffffffffffffffffffffffffffffffffffffffff168173ffffffffffffffffffffffffffffffffffffffff16837f2f8788117e7eff1d82e926ec794901d17c78024a50270940304540a733656f0d60405160405180910390a45b5050565b600033905090565b61103e8282610c9f565b1561111157600080600084815260200190815260200160002060000160008373ffffffffffffffffffffffffffffffffffffffff1673ffffffffffffffffffffffffffffffffffffffff16815260200190815260200160002060006101000a81548160ff0219169083151502179055506110b661102c565b73ffffffffffffffffffffffffffffffffffffffff168173ffffffffffffffffffffffffffffffffffffffff16837ff6391f5c32d9c69d2a47ea670b442974b53935d1edc7fd64eb21e047a839171b60405160405180910390a45b5050565b61111f8282610f4c565b5050565b61112d8282610c9f565b6111a45761113a816111a8565b6111488360001c60206111d5565b604051602001611159929190611ccd565b6040516020818303038152906040526040517f08c379a000000000000000000000000000000000000000000000000000000000815260040161119b9190611d51565b60405180910390fd5b5050565b60606111ce8273ffffffffffffffffffffffffffffffffffffffff16601460ff166111d5565b9050919050565b6060600060028360026111e89190611d73565b6111f29190611af9565b67ffffffffffffffff81111561120b5761120a611957565b5b6040519080825280601f01601f19166020018201604052801561123d5781602001600182028036833780820191505090505b5090507f30000000000000000000000000000000000000000000000000000000000000008160008151811061127557611274611dcd565b5b60200101907effffffffffffffffffffffffffffffffffffffffffffffffffffffffffffff1916908160001a9053507f7800000000000000000000000000000000000000000000000000000000000000816001815181106112d9576112d8611dcd565b5b60200101907effffffffffffffffffffffffffffffffffffffffffffffffffffffffffffff1916908160001a905350600060018460026113199190611d73565b6113239190611af9565b90505b60018111156113c3577f3031323334353637383961626364656600000000000000000000000000000000600f86166010811061136557611364611dcd565b5b1a60f81b82828151811061137c5761137b611dcd565b5b60200101907effffffffffffffffffffffffffffffffffffffffffffffffffffffffffffff1916908160001a905350600485901c9450806113bc90611dfc565b9050611326565b5060008414611407576040517f08c379a00000000000000000000000000000000000000000000000000000000081526004016113fe90611e71565b60405180910390fd5b8091505092915050565b82805482825590600052602060002090601f016020900481019282156114a75791602002820160005b8382111561147857835183826101000a81548160ff021916908360ff160217905550926020019260010160208160000104928301926001030261143a565b80156114a55782816101000a81549060ff0219169055600101602081600001049283019260010302611478565b505b5090506114b491906114b8565b5090565b5b808211156114d15760008160009055506001016114b9565b5090565b600080fd5b60007fffffffff0000000000000000000000000000000000000000000000000000000082169050919050565b61150f816114da565b811461151a57600080fd5b50565b60008135905061152c81611506565b92915050565b600060208284031215611548576115476114d5565b5b60006115568482850161151d565b91505092915050565b60008115159050919050565b6115748161155f565b82525050565b600060208201905061158f600083018461156b565b92915050565b6000819050919050565b6115a881611595565b81146115b357600080fd5b50565b6000813590506115c58161159f565b92915050565b6000602082840312156115e1576115e06114d5565b5b60006115ef848285016115b6565b91505092915050565b600073ffffffffffffffffffffffffffffffffffffffff82169050919050565b6000611623826115f8565b9050919050565b61163381611618565b82525050565b600060208201905061164e600083018461162a565b92915050565b6000819050919050565b61166781611654565b811461167257600080fd5b50565b6000813590506116848161165e565b92915050565b6000602082840312156116a05761169f6114d5565b5b60006116ae84828501611675565b91505092915050565b6116c081611654565b82525050565b60006020820190506116db60008301846116b7565b92915050565b6116ea81611618565b81146116f557600080fd5b50565b600081359050611707816116e1565b92915050565b600060208284031215611723576117226114d5565b5b6000611731848285016116f8565b91505092915050565b60008060408385031215611751576117506114d5565b5b600061175f85828601611675565b9250506020611770858286016116f8565b9150509250929050565b61178381611595565b82525050565b600060a08201905061179e600083018861177a565b6117ab602083018761156b565b6117b8604083018661156b565b6117c560608301856116b7565b6117d2608083018461162a565b9695505050505050565b600082825260208201905092915050565b7f416363657373436f6e74726f6c3a2063616e206f6e6c792072656e6f756e636560008201527f20726f6c657320666f722073656c660000000000000000000000000000000000602082015250565b6000611849602f836117dc565b9150611854826117ed565b604082019050919050565b600060208201905081810360008301526118788161183c565b9050919050565b7f4e56000000000000000000000000000000000000000000000000000000000000600082015250565b60006118b56002836117dc565b91506118c08261187f565b602082019050919050565b600060208201905081810360008301526118e4816118a8565b9050919050565b7f4156000000000000000000000000000000000000000000000000000000000000600082015250565b60006119216002836117dc565b915061192c826118eb565b602082019050919050565b6000602082019050818103600083015261195081611914565b9050919050565b7f4e487b7100000000000000000000000000000000000000000000000000000000600052604160045260246000fd5b7f4144000000000000000000000000000000000000000000000000000000000000600082015250565b60006119bc6002836117dc565b91506119c782611986565b602082019050919050565b600060208201905081810360008301526119eb816119af565b9050919050565b7f53656c6620440000000000000000000000000000000000000000000000000000600082015250565b6000611a286006836117dc565b9150611a33826119f2565b602082019050919050565b60006020820190508181036000830152611a5781611a1b565b9050919050565b7f4c6f6f7000000000000000000000000000000000000000000000000000000000600082015250565b6000611a946004836117dc565b9150611a9f82611a5e565b602082019050919050565b60006020820190508181036000830152611ac381611a87565b9050919050565b7f4e487b7100000000000000000000000000000000000000000000000000000000600052601160045260246000fd5b6000611b0482611595565b9150611b0f83611595565b9250827fffffffffffffffffffffffffffffffffffffffffffffffffffffffffffffffff03821115611b4457611b43611aca565b5b828201905092915050565b7f4e41000000000000000000000000000000000000000000000000000000000000600082015250565b6000611b856002836117dc565b9150611b9082611b4f565b602082019050919050565b60006020820190508181036000830152611bb481611b78565b9050919050565b600081905092915050565b7f416363657373436f6e74726f6c3a206163636f756e7420000000000000000000600082015250565b6000611bfc601783611bbb565b9150611c0782611bc6565b601782019050919050565b600081519050919050565b60005b83811015611c3b578082015181840152602081019050611c20565b83811115611c4a576000848401525b50505050565b6000611c5b82611c12565b611c658185611bbb565b9350611c75818560208601611c1d565b80840191505092915050565b7f206973206d697373696e6720726f6c6520000000000000000000000000000000600082015250565b6000611cb7601183611bbb565b9150611cc282611c81565b601182019050919050565b6000611cd882611bef565b9150611ce48285611c50565b9150611cef82611caa565b9150611cfb8284611c50565b91508190509392505050565b6000601f19601f8301169050919050565b6000611d2382611c12565b611d2d81856117dc565b9350611d3d818560208601611c1d565b611d4681611d07565b840191505092915050565b60006020820190508181036000830152611d6b8184611d18565b905092915050565b6000611d7e82611595565b9150611d8983611595565b9250817fffffffffffffffffffffffffffffffffffffffffffffffffffffffffffffffff0483118215151615611dc257611dc1611aca565b5b828202905092915050565b7f4e487b7100000000000000000000000000000000000000000000000000000000600052603260045260246000fd5b6000611e0782611595565b915060008203611e1a57611e19611aca565b5b600182039050919050565b7f537472696e67733a20686578206c656e67746820696e73756666696369656e74600082015250565b6000611e5b6020836117dc565b9150611e6682611e25565b602082019050919050565b60006020820190508181036000830152611e8a81611e4e565b905091905056fea2646970667358221220684121cf8e4a635f591c64bf94a374166551120fc66644dc56fc1ade43b1c39d64736f6c634300080e0033",
  "immutableReferences": {},
  "source": "// SPDX-License-Identifier: GPL-3.0\n\npragma solidity >=0.7.0 <0.9.0;\n\n//import \"@openzeppelin/contracts/access/AccessControl.sol\";\nimport \"./RoleBasedControl.sol\";\n\ncontract VoterOperations is RoleBasedControl {\n    struct Voter {\n        uint weight;\n        bool isDelegated;\n        bool isVoted;\n        uint8[] preferences;\n        bytes32 preferencesHash;\n        address proxy;\n    }\n\n    mapping(address => Voter) public voters;\n    address[] public registeredVoters;\n\n    event VoterRegistered(address indexed voter);\n    event RegisteredVotersPrinted(address[] registeredVoters);\n\n    function registerVoter(address voter) public {\n        onlyAdmin();\n        require(!hasRole(VOTER_ROLE, voter), \"NV\");\n        require(!voters[voter].isVoted, \"AV\");\n        \n        _setupRole(VOTER_ROLE, voter);\n\n        voters[voter].isDelegated = false;\n        voters[voter].isVoted = false;\n        voters[voter].weight = 1;\n        voters[voter].preferences =  new uint8[](0);\n\n        registeredVoters.push(voter);\n\n        emit VoterRegistered(voter);\n    }\n\n    function grantProxy(address to) public {\n        onlyVoter();\n        require(hasRole(VOTER_ROLE, to), \"NV\");\n        Voter storage sender = voters[msg.sender];\n\n        require(!sender.isDelegated, \"AD\");\n        require(!sender.isVoted, \"AV\");\n        require(to != msg.sender, \"Self D\");\n\n        while (voters[to].proxy != address(0)) {\n            to = voters[to].proxy;\n            require(to != msg.sender, \"Loop\");\n        }\n\n        sender.isDelegated = true;\n        sender.proxy = to;\n\n        Voter storage proxy = voters[to];\n        proxy.weight += sender.weight;\n    }\n}\n",
  "sourcePath": "/Users/ivanchow/Desktop/Projects/goodvoting/contracts/VoterOperations.sol",
  "compiler": {
    "name": "solc",
    "version": "0.8.14+commit.80d49f37.Emscripten.clang"
  },
  "schemaVersion": "3.4.13",
  "updatedAt": "2023-05-22T15:13:39.838Z",
  "devdoc": {
    "kind": "dev",
    "methods": {
      "getRoleAdmin(bytes32)": {
        "details": "Returns the admin role that controls `role`. See {grantRole} and {revokeRole}. To change a role's admin, use {_setRoleAdmin}."
      },
      "grantRole(bytes32,address)": {
        "details": "Grants `role` to `account`. If `account` had not been already granted `role`, emits a {RoleGranted} event. Requirements: - the caller must have ``role``'s admin role. May emit a {RoleGranted} event."
      },
      "hasRole(bytes32,address)": {
        "details": "Returns `true` if `account` has been granted `role`."
      },
      "renounceRole(bytes32,address)": {
        "details": "Revokes `role` from the calling account. Roles are often managed via {grantRole} and {revokeRole}: this function's purpose is to provide a mechanism for accounts to lose their privileges if they are compromised (such as when a trusted device is misplaced). If the calling account had been revoked `role`, emits a {RoleRevoked} event. Requirements: - the caller must be `account`. May emit a {RoleRevoked} event."
      },
      "revokeRole(bytes32,address)": {
        "details": "Revokes `role` from `account`. If `account` had been granted `role`, emits a {RoleRevoked} event. Requirements: - the caller must have ``role``'s admin role. May emit a {RoleRevoked} event."
      },
      "supportsInterface(bytes4)": {
        "details": "See {IERC165-supportsInterface}."
      }
    },
    "version": 1
  },
  "userdoc": {
    "kind": "user",
    "methods": {},
    "version": 1
  }
}