{
  "contractName": "VotingEventManager",
  "abi": [
    {
      "anonymous": false,
      "inputs": [
        {
          "indexed": false,
          "internalType": "address",
          "name": "newVotingAddress",
          "type": "address"
        },
        {
          "indexed": false,
          "internalType": "address",
          "name": "adminHost",
          "type": "address"
        },
        {
          "indexed": false,
          "internalType": "string",
          "name": "eventName",
          "type": "string"
        }
      ],
      "name": "VotingEventCreated",
      "type": "event"
    },
    {
      "inputs": [
        {
          "internalType": "uint256",
          "name": "",
          "type": "uint256"
        }
      ],
      "name": "votingEvents",
      "outputs": [
        {
          "internalType": "string",
          "name": "name",
          "type": "string"
        },
        {
          "internalType": "address",
          "name": "votingContract",
          "type": "address"
        },
        {
          "internalType": "address",
          "name": "hostAdmin",
          "type": "address"
        },
        {
          "internalType": "uint256",
          "name": "winnerVoteCount",
          "type": "uint256"
        },
        {
          "internalType": "bool",
          "name": "isVotingEnded",
          "type": "bool"
        }
      ],
      "stateMutability": "view",
      "type": "function",
      "constant": true
    },
    {
      "inputs": [
        {
          "internalType": "string",
          "name": "eventName",
          "type": "string"
        }
      ],
      "name": "createVotingEvent",
      "outputs": [],
      "stateMutability": "nonpayable",
      "type": "function"
    },
    {
      "inputs": [
        {
          "internalType": "address",
          "name": "votingContract",
          "type": "address"
        },
        {
          "internalType": "uint256[]",
          "name": "_winners",
          "type": "uint256[]"
        },
        {
          "internalType": "uint256",
          "name": "_winnerVoteCount",
          "type": "uint256"
        }
      ],
      "name": "setWinner",
      "outputs": [],
      "stateMutability": "nonpayable",
      "type": "function"
    }
  ],
  "bytecode": "0x608060405234801561001057600080fd5b50615f42806100206000396000f3fe60806040523480156200001157600080fd5b5060043610620000465760003560e01c8063437dfe88146200004b5780638d22a379146200006b578063bf9b48a7146200008b575b600080fd5b62000069600480360381019062000063919062000a56565b620000c5565b005b62000089600480360381019062000083919062000b99565b620002d5565b005b620000a96004803603810190620000a3919062000bea565b620005f9565b604051620000bc95949392919062000cee565b60405180910390f35b60005b600080549050811015620002cf578373ffffffffffffffffffffffffffffffffffffffff166000828154811062000104576200010362000d52565b5b906000526020600020906006020160010160009054906101000a900473ffffffffffffffffffffffffffffffffffffffff1673ffffffffffffffffffffffffffffffffffffffff1603620002b9576000818154811062000169576200016862000d52565b5b906000526020600020906006020160010160009054906101000a900473ffffffffffffffffffffffffffffffffffffffff1673ffffffffffffffffffffffffffffffffffffffff163373ffffffffffffffffffffffffffffffffffffffff16146200020b576040517f08c379a0000000000000000000000000000000000000000000000000000000008152600401620002029062000dd1565b60405180910390fd5b826000828154811062000223576200022262000d52565b5b90600052602060002090600602016003019080519060200190620002499291906200071d565b50816000828154811062000262576200026162000d52565b5b90600052602060002090600602016004018190555060016000828154811062000290576200028f62000d52565b5b906000526020600020906006020160050160006101000a81548160ff0219169083151502179055505b8080620002c69062000e22565b915050620000c8565b50505050565b600030604051620002e6906200076f565b620002f2919062000eda565b604051809103906000f0801580156200030f573d6000803e3d6000fd5b5090508073ffffffffffffffffffffffffffffffffffffffff16632f2ff15d8273ffffffffffffffffffffffffffffffffffffffff166375b238fc6040518163ffffffff1660e01b8152600401602060405180830381865afa1580156200037a573d6000803e3d6000fd5b505050506040513d601f19601f82011682018060405250810190620003a0919062000f32565b336040518363ffffffff1660e01b8152600401620003c092919062000f75565b600060405180830381600087803b158015620003db57600080fd5b505af1158015620003f0573d6000803e3d6000fd5b505050508073ffffffffffffffffffffffffffffffffffffffff1663d547741f8273ffffffffffffffffffffffffffffffffffffffff1663a217fddf6040518163ffffffff1660e01b8152600401602060405180830381865afa1580156200045c573d6000803e3d6000fd5b505050506040513d601f19601f8201168201806040525081019062000482919062000f32565b306040518363ffffffff1660e01b8152600401620004a292919062000f75565b600060405180830381600087803b158015620004bd57600080fd5b505af1158015620004d2573d6000803e3d6000fd5b50505050600080600181600181540180825580915050039060005260206000209060060201905082816000019080519060200190620005139291906200077d565b50818160010160006101000a81548173ffffffffffffffffffffffffffffffffffffffff021916908373ffffffffffffffffffffffffffffffffffffffff160217905550338160020160006101000a81548173ffffffffffffffffffffffffffffffffffffffff021916908373ffffffffffffffffffffffffffffffffffffffff16021790555060008160050160006101000a81548160ff0219169083151502179055507f441a16391e110978a4f2963ca31d1096b43008207c10a56e1fdaf88bd7889d05823385604051620005ec9392919062000fa2565b60405180910390a1505050565b600081815481106200060a57600080fd5b90600052602060002090600602016000915090508060000180546200062f9062001015565b80601f01602080910402602001604051908101604052809291908181526020018280546200065d9062001015565b8015620006ae5780601f106200068257610100808354040283529160200191620006ae565b820191906000526020600020905b8154815290600101906020018083116200069057829003601f168201915b5050505050908060010160009054906101000a900473ffffffffffffffffffffffffffffffffffffffff16908060020160009054906101000a900473ffffffffffffffffffffffffffffffffffffffff16908060040154908060050160009054906101000a900460ff16905085565b8280548282559060005260206000209081019282156200075c579160200282015b828111156200075b5782518255916020019190600101906200073e565b5b5090506200076b91906200080e565b5090565b614ec2806200104b83390190565b8280546200078b9062001015565b90600052602060002090601f016020900481019282620007af5760008555620007fb565b82601f10620007ca57805160ff1916838001178555620007fb565b82800160010185558215620007fb579182015b82811115620007fa578251825591602001919060010190620007dd565b5b5090506200080a91906200080e565b5090565b5b80821115620008295760008160009055506001016200080f565b5090565b6000604051905090565b600080fd5b600080fd5b600073ffffffffffffffffffffffffffffffffffffffff82169050919050565b60006200086e8262000841565b9050919050565b620008808162000861565b81146200088c57600080fd5b50565b600081359050620008a08162000875565b92915050565b600080fd5b6000601f19601f8301169050919050565b7f4e487b7100000000000000000000000000000000000000000000000000000000600052604160045260246000fd5b620008f682620008ab565b810181811067ffffffffffffffff82111715620009185762000917620008bc565b5b80604052505050565b60006200092d6200082d565b90506200093b8282620008eb565b919050565b600067ffffffffffffffff8211156200095e576200095d620008bc565b5b602082029050602081019050919050565b600080fd5b6000819050919050565b620009898162000974565b81146200099557600080fd5b50565b600081359050620009a9816200097e565b92915050565b6000620009c6620009c08462000940565b62000921565b90508083825260208201905060208402830185811115620009ec57620009eb6200096f565b5b835b8181101562000a19578062000a04888262000998565b845260208401935050602081019050620009ee565b5050509392505050565b600082601f83011262000a3b5762000a3a620008a6565b5b813562000a4d848260208601620009af565b91505092915050565b60008060006060848603121562000a725762000a7162000837565b5b600062000a82868287016200088f565b935050602084013567ffffffffffffffff81111562000aa65762000aa56200083c565b5b62000ab48682870162000a23565b925050604062000ac78682870162000998565b9150509250925092565b600080fd5b600067ffffffffffffffff82111562000af45762000af3620008bc565b5b62000aff82620008ab565b9050602081019050919050565b82818337600083830152505050565b600062000b3262000b2c8462000ad6565b62000921565b90508281526020810184848401111562000b515762000b5062000ad1565b5b62000b5e84828562000b0c565b509392505050565b600082601f83011262000b7e5762000b7d620008a6565b5b813562000b9084826020860162000b1b565b91505092915050565b60006020828403121562000bb25762000bb162000837565b5b600082013567ffffffffffffffff81111562000bd35762000bd26200083c565b5b62000be18482850162000b66565b91505092915050565b60006020828403121562000c035762000c0262000837565b5b600062000c138482850162000998565b91505092915050565b600081519050919050565b600082825260208201905092915050565b60005b8381101562000c5857808201518184015260208101905062000c3b565b8381111562000c68576000848401525b50505050565b600062000c7b8262000c1c565b62000c87818562000c27565b935062000c9981856020860162000c38565b62000ca481620008ab565b840191505092915050565b62000cba8162000861565b82525050565b62000ccb8162000974565b82525050565b60008115159050919050565b62000ce88162000cd1565b82525050565b600060a082019050818103600083015262000d0a818862000c6e565b905062000d1b602083018762000caf565b62000d2a604083018662000caf565b62000d39606083018562000cc0565b62000d48608083018462000cdd565b9695505050505050565b7f4e487b7100000000000000000000000000000000000000000000000000000000600052603260045260246000fd5b7f4e412e0000000000000000000000000000000000000000000000000000000000600082015250565b600062000db960038362000c27565b915062000dc68262000d81565b602082019050919050565b6000602082019050818103600083015262000dec8162000daa565b9050919050565b7f4e487b7100000000000000000000000000000000000000000000000000000000600052601160045260246000fd5b600062000e2f8262000974565b91507fffffffffffffffffffffffffffffffffffffffffffffffffffffffffffffffff820362000e645762000e6362000df3565b5b600182019050919050565b6000819050919050565b600062000e9a62000e9462000e8e8462000841565b62000e6f565b62000841565b9050919050565b600062000eae8262000e79565b9050919050565b600062000ec28262000ea1565b9050919050565b62000ed48162000eb5565b82525050565b600060208201905062000ef1600083018462000ec9565b92915050565b6000819050919050565b62000f0c8162000ef7565b811462000f1857600080fd5b50565b60008151905062000f2c8162000f01565b92915050565b60006020828403121562000f4b5762000f4a62000837565b5b600062000f5b8482850162000f1b565b91505092915050565b62000f6f8162000ef7565b82525050565b600060408201905062000f8c600083018562000f64565b62000f9b602083018462000caf565b9392505050565b600060608201905062000fb9600083018662000caf565b62000fc8602083018562000caf565b818103604083015262000fdc818462000c6e565b9050949350505050565b7f4e487b7100000000000000000000000000000000000000000000000000000000600052602260045260246000fd5b600060028204905060018216806200102e57607f821691505b60208210810362001044576200104362000fe6565b5b5091905056fe60806040523480156200001157600080fd5b5060405162004ec238038062004ec28339818101604052810190620000379190620002d8565b6200004c6000801b33620000e160201b60201c565b6200007e7fa49807205ce4d355092ef5a8a18f56e8913cf4a201fbe287825b095693c2177533620000e160201b60201c565b80600560016101000a81548173ffffffffffffffffffffffffffffffffffffffff021916908373ffffffffffffffffffffffffffffffffffffffff1602179055506000600560006101000a81548160ff021916908315150217905550506200030a565b620000f38282620000f760201b60201c565b5050565b620001098282620001e860201b60201c565b620001e457600160008084815260200190815260200160002060000160008373ffffffffffffffffffffffffffffffffffffffff1673ffffffffffffffffffffffffffffffffffffffff16815260200190815260200160002060006101000a81548160ff021916908315150217905550620001896200025260201b60201c565b73ffffffffffffffffffffffffffffffffffffffff168173ffffffffffffffffffffffffffffffffffffffff16837f2f8788117e7eff1d82e926ec794901d17c78024a50270940304540a733656f0d60405160405180910390a45b5050565b600080600084815260200190815260200160002060000160008373ffffffffffffffffffffffffffffffffffffffff1673ffffffffffffffffffffffffffffffffffffffff16815260200190815260200160002060009054906101000a900460ff16905092915050565b600033905090565b600080fd5b600073ffffffffffffffffffffffffffffffffffffffff82169050919050565b60006200028c826200025f565b9050919050565b6000620002a0826200027f565b9050919050565b620002b28162000293565b8114620002be57600080fd5b50565b600081519050620002d281620002a7565b92915050565b600060208284031215620002f157620002f06200025a565b5b60006200030184828501620002c1565b91505092915050565b614ba8806200031a6000396000f3fe608060405234801561001057600080fd5b50600436106101a95760003560e01c806375b238fc116100f9578063a94015c811610097578063d547741f11610071578063d547741f146104d4578063df15c37e146104f0578063dfbf53ae1461050e578063e0de639f1461052c576101a9565b8063a94015c81461048e578063c3403ddf146104ac578063c857ecbe146104b6576101a9565b8063a2fb1175116100d3578063a2fb1175146103f0578063a3ec138d14610420578063a5f7823e14610454578063a7771ee31461045e576101a9565b806375b238fc1461038457806391d14854146103a2578063a217fddf146103d2576101a9565b80633477ee2e1161016657806338db6dd31161014057806338db6dd3146103125780633e0c38311461032e578063462e91ec1461034c57806372d777f514610368576101a9565b80633477ee2e146102a657806336568abe146102d857806336eafe36146102f4576101a9565b806301ffc9a7146101ae5780631247ab21146101de5780632436e06b146101fa578063248a9ca31461022a57806324d7806c1461025a5780632f2ff15d1461028a575b600080fd5b6101c860048036038101906101c39190612a7f565b610536565b6040516101d59190612ac7565b60405180910390f35b6101f860048036038101906101f39190612c74565b6105b0565b005b610214600480360381019061020f9190612cf3565b610823565b6040516102219190612d61565b60405180910390f35b610244600480360381019061023f9190612db2565b610862565b6040516102519190612dee565b60405180910390f35b610274600480360381019061026f9190612e35565b610881565b6040516102819190612ac7565b60405180910390f35b6102a4600480360381019061029f9190612e62565b6108b4565b005b6102c060048036038101906102bb9190612cf3565b6108d5565b6040516102cf93929190612f39565b60405180910390f35b6102f260048036038101906102ed9190612e62565b6109a4565b005b6102fc610a27565b6040516103099190613083565b60405180910390f35b61032c60048036038101906103279190612e35565b610b71565b005b610336610ee3565b6040516103439190612ac7565b60405180910390f35b6103666004803603810190610361919061315a565b61115f565b005b610382600480360381019061037d9190612e35565b6111cf565b005b61038c6115cb565b6040516103999190612dee565b60405180910390f35b6103bc60048036038101906103b79190612e62565b6115ef565b6040516103c99190612ac7565b60405180910390f35b6103da611659565b6040516103e79190612dee565b60405180910390f35b61040a60048036038101906104059190612cf3565b611660565b60405161041791906131a3565b60405180910390f35b61043a60048036038101906104359190612e35565b611684565b60405161044b9594939291906131be565b60405180910390f35b61045c6116f4565b005b61047860048036038101906104739190612e35565b61175f565b6040516104859190612ac7565b60405180910390f35b610496611792565b6040516104a39190612dee565b60405180910390f35b6104b46117b6565b005b6104be611bd6565b6040516104cb9190612ac7565b60405180910390f35b6104ee60048036038101906104e99190612e62565b611be9565b005b6104f8611c0a565b60405161050591906132cf565b60405180910390f35b610516611cb1565b60405161052391906131a3565b60405180910390f35b610534611cb7565b005b60007f7965db0b000000000000000000000000000000000000000000000000000000007bffffffffffffffffffffffffffffffffffffffffffffffffffffffff1916827bffffffffffffffffffffffffffffffffffffffffffffffffffffffff191614806105a957506105a882611d22565b5b9050919050565b6000600160003373ffffffffffffffffffffffffffffffffffffffff1673ffffffffffffffffffffffffffffffffffffffff16815260200190815260200160002090506105fb611cb7565b8060010160019054906101000a900460ff161561064d576040517f08c379a00000000000000000000000000000000000000000000000000000000081526004016106449061333d565b60405180910390fd5b8060010160009054906101000a900460ff161561069f576040517f08c379a0000000000000000000000000000000000000000000000000000000008152600401610696906133a9565b60405180910390fd5b6002825111156106e4576040517f08c379a00000000000000000000000000000000000000000000000000000000081526004016106db90613415565b60405180910390fd5b60005b82518110156107675760038054905083828151811061070957610708613435565b5b602002602001015160ff1610610754576040517f08c379a000000000000000000000000000000000000000000000000000000000815260040161074b906134b0565b60405180910390fd5b808061075f906134ff565b9150506106e7565b5060018160010160016101000a81548160ff0219169083151502179055508181600201908051906020019061079d92919061287c565b50816040516020016107af91906135ff565b6040516020818303038152906040528051906020012081600301819055503373ffffffffffffffffffffffffffffffffffffffff167f1dc98fa5887c72cf5fa65e0036529022ea17019be477921b57c1b9fa19e73da082600301546040516108179190612dee565b60405180910390a25050565b6002818154811061083357600080fd5b906000526020600020016000915054906101000a900473ffffffffffffffffffffffffffffffffffffffff1681565b6000806000838152602001908152602001600020600101549050919050565b60006108ad7fa49807205ce4d355092ef5a8a18f56e8913cf4a201fbe287825b095693c21775836115ef565b9050919050565b6108bd82610862565b6108c681611d8c565b6108d08383611da0565b505050565b600381815481106108e557600080fd5b906000526020600020906004020160009150905080600001805461090890613645565b80601f016020809104026020016040519081016040528092919081815260200182805461093490613645565b80156109815780601f1061095657610100808354040283529160200191610981565b820191906000526020600020905b81548152906001019060200180831161096457829003601f168201915b5050505050908060010154908060020160009054906101000a900460ff16905083565b6109ac611e80565b73ffffffffffffffffffffffffffffffffffffffff168173ffffffffffffffffffffffffffffffffffffffff1614610a19576040517f08c379a0000000000000000000000000000000000000000000000000000000008152600401610a10906136e8565b60405180910390fd5b610a238282611e88565b5050565b606060038054905067ffffffffffffffff811115610a4857610a47612af8565b5b604051908082528060200260200182016040528015610a7b57816020015b6060815260200190600190039081610a665790505b50905060005b600380549050811015610b6d5760038181548110610aa257610aa1613435565b5b90600052602060002090600402016000018054610abe90613645565b80601f0160208091040260200160405190810160405280929190818152602001828054610aea90613645565b8015610b375780601f10610b0c57610100808354040283529160200191610b37565b820191906000526020600020905b815481529060010190602001808311610b1a57829003601f168201915b5050505050828281518110610b4f57610b4e613435565b5b60200260200101819052508080610b65906134ff565b915050610a81565b5090565b610b796116f4565b610ba37f72c3eec1760bf69946625c2d4fb8e44e2c806345041960b434674fb9ab3976cf826115ef565b15610be3576040517f08c379a0000000000000000000000000000000000000000000000000000000008152600401610bda90613754565b60405180910390fd5b600160008273ffffffffffffffffffffffffffffffffffffffff1673ffffffffffffffffffffffffffffffffffffffff16815260200190815260200160002060010160019054906101000a900460ff1615610c73576040517f08c379a0000000000000000000000000000000000000000000000000000000008152600401610c6a9061333d565b60405180910390fd5b610c9d7f72c3eec1760bf69946625c2d4fb8e44e2c806345041960b434674fb9ab3976cf82611f69565b6000600160008373ffffffffffffffffffffffffffffffffffffffff1673ffffffffffffffffffffffffffffffffffffffff16815260200190815260200160002060010160006101000a81548160ff0219169083151502179055506000600160008373ffffffffffffffffffffffffffffffffffffffff1673ffffffffffffffffffffffffffffffffffffffff16815260200190815260200160002060010160016101000a81548160ff02191690831515021790555060018060008373ffffffffffffffffffffffffffffffffffffffff1673ffffffffffffffffffffffffffffffffffffffff16815260200190815260200160002060000181905550600067ffffffffffffffff811115610db557610db4612af8565b5b604051908082528060200260200182016040528015610de35781602001602082028036833780820191505090505b50600160008373ffffffffffffffffffffffffffffffffffffffff1673ffffffffffffffffffffffffffffffffffffffff1681526020019081526020016000206002019080519060200190610e3992919061287c565b506002819080600181540180825580915050600190039060005260206000200160009091909190916101000a81548173ffffffffffffffffffffffffffffffffffffffff021916908373ffffffffffffffffffffffffffffffffffffffff1602179055508073ffffffffffffffffffffffffffffffffffffffff167fb6be2187d059cc2a55fe29e0e503b566e1e0f8c8780096e185429350acffd3dd60405160405180910390a250565b6000600160003373ffffffffffffffffffffffffffffffffffffffff1673ffffffffffffffffffffffffffffffffffffffff16815260200190815260200160002060010160019054906101000a900460ff16610f74576040517f08c379a0000000000000000000000000000000000000000000000000000000008152600401610f6b90613754565b60405180910390fd5b600560009054906101000a900460ff16610fc3576040517f08c379a0000000000000000000000000000000000000000000000000000000008152600401610fba906137c0565b60405180910390fd5b6000600160003373ffffffffffffffffffffffffffffffffffffffff1673ffffffffffffffffffffffffffffffffffffffff16815260200190815260200160002060020160008154811061101a57611019613435565b5b90600052602060002090602091828204019190069054906101000a900460ff169050600060038260ff168154811061105557611054613435565b5b906000526020600020906004020160030160003373ffffffffffffffffffffffffffffffffffffffff1673ffffffffffffffffffffffffffffffffffffffff168152602001908152602001600020541180156111595750600160003373ffffffffffffffffffffffffffffffffffffffff1673ffffffffffffffffffffffffffffffffffffffff1681526020019081526020016000206002016040516020016110fe9190614533565b60405160208183030381529060405280519060200120600160003373ffffffffffffffffffffffffffffffffffffffff1673ffffffffffffffffffffffffffffffffffffffff16815260200190815260200160002060030154145b91505090565b6111676116f4565b600060036001816001815401808255809150500390600052602060002090600402019050818160000190805190602001906111a3929190612923565b506000816001018190555060008160020160006101000a81548160ff0219169083151502179055505050565b6111d7611cb7565b6112017f72c3eec1760bf69946625c2d4fb8e44e2c806345041960b434674fb9ab3976cf826115ef565b611240576040517f08c379a000000000000000000000000000000000000000000000000000000000815260040161123790613754565b60405180910390fd5b6000600160003373ffffffffffffffffffffffffffffffffffffffff1673ffffffffffffffffffffffffffffffffffffffff16815260200190815260200160002090508060010160009054906101000a900460ff16156112d5576040517f08c379a00000000000000000000000000000000000000000000000000000000081526004016112cc90614596565b60405180910390fd5b8060010160019054906101000a900460ff1615611327576040517f08c379a000000000000000000000000000000000000000000000000000000000815260040161131e9061333d565b60405180910390fd5b3373ffffffffffffffffffffffffffffffffffffffff168273ffffffffffffffffffffffffffffffffffffffff1603611395576040517f08c379a000000000000000000000000000000000000000000000000000000000815260040161138c90614602565b60405180910390fd5b5b600073ffffffffffffffffffffffffffffffffffffffff16600160008473ffffffffffffffffffffffffffffffffffffffff1673ffffffffffffffffffffffffffffffffffffffff16815260200190815260200160002060040160009054906101000a900473ffffffffffffffffffffffffffffffffffffffff1673ffffffffffffffffffffffffffffffffffffffff161461150457600160008373ffffffffffffffffffffffffffffffffffffffff1673ffffffffffffffffffffffffffffffffffffffff16815260200190815260200160002060040160009054906101000a900473ffffffffffffffffffffffffffffffffffffffff1691503373ffffffffffffffffffffffffffffffffffffffff168273ffffffffffffffffffffffffffffffffffffffff16036114ff576040517f08c379a00000000000000000000000000000000000000000000000000000000081526004016114f69061466e565b60405180910390fd5b611396565b60018160010160006101000a81548160ff021916908315150217905550818160040160006101000a81548173ffffffffffffffffffffffffffffffffffffffff021916908373ffffffffffffffffffffffffffffffffffffffff1602179055506000600160008473ffffffffffffffffffffffffffffffffffffffff1673ffffffffffffffffffffffffffffffffffffffff168152602001908152602001600020905081600001548160000160008282546115bf919061468e565b92505081905550505050565b7fa49807205ce4d355092ef5a8a18f56e8913cf4a201fbe287825b095693c2177581565b600080600084815260200190815260200160002060000160008373ffffffffffffffffffffffffffffffffffffffff1673ffffffffffffffffffffffffffffffffffffffff16815260200190815260200160002060009054906101000a900460ff16905092915050565b6000801b81565b6006818154811061167057600080fd5b906000526020600020016000915090505481565b60016020528060005260406000206000915090508060000154908060010160009054906101000a900460ff16908060010160019054906101000a900460ff16908060030154908060040160009054906101000a900473ffffffffffffffffffffffffffffffffffffffff16905085565b61171e7fa49807205ce4d355092ef5a8a18f56e8913cf4a201fbe287825b095693c21775336115ef565b61175d576040517f08c379a000000000000000000000000000000000000000000000000000000000815260040161175490614730565b60405180910390fd5b565b600061178b7f72c3eec1760bf69946625c2d4fb8e44e2c806345041960b434674fb9ab3976cf836115ef565b9050919050565b7f72c3eec1760bf69946625c2d4fb8e44e2c806345041960b434674fb9ab3976cf81565b6117be6116f4565b600560009054906101000a900460ff161561180e576040517f08c379a00000000000000000000000000000000000000000000000000000000081526004016118059061479c565b60405180910390fd5b6000806000805b600115611a7b5761183182611829906134ff565b925082611f77565b611839612228565b60046000829750839190505582965050505083156118dc57600167ffffffffffffffff81111561186c5761186b612af8565b5b60405190808252806020026020018201604052801561189a5781602001602082028036833780820191505090505b50600690805190602001906118b09291906129a9565b5060045460066000815481106118c9576118c8613435565b5b9060005260206000200181905550611a7b565b60006118e6612335565b90506118f181612418565b91508115611a6c57809350600080600090505b600380549050811015611976576003818154811061192557611924613435565b5b906000526020600020906004020160020160009054906101000a900460ff1615611950576000611953565b60015b60ff1682611961919061468e565b9150808061196e906134ff565b915050611904565b508067ffffffffffffffff81111561199157611990612af8565b5b6040519080825280602002602001820160405280156119bf5781602001602082028036833780820191505090505b50600690805190602001906119d59291906129a9565b506000905060005b600380549050811015611a6457600381815481106119fe576119fd613435565b5b906000526020600020906004020160020160009054906101000a900460ff16611a51578060068380611a2f906134ff565b945081548110611a4257611a41613435565b5b90600052602060002001819055505b8080611a5c906134ff565b9150506119dd565b505050611a7b565b611a75816124bf565b50611815565b60008303611ae857600067ffffffffffffffff811115611a9e57611a9d612af8565b5b604051908082528060200260200182016040528015611acc5781602001602082028036833780820191505090505b5060069080519060200190611ae29291906129a9565b50611b96565b6001600560006101000a81548160ff021916908315150217905550600560019054906101000a900473ffffffffffffffffffffffffffffffffffffffff1673ffffffffffffffffffffffffffffffffffffffff1663437dfe88306006866040518463ffffffff1660e01b8152600401611b6393929190614885565b600060405180830381600087803b158015611b7d57600080fd5b505af1158015611b91573d6000803e3d6000fd5b505050505b7f7655293ae5188612880e4fe9b707bc7dfad2c087323a875b080591b6e2714116600684604051611bc89291906148c3565b60405180910390a150505050565b600560009054906101000a900460ff1681565b611bf282610862565b611bfb81611d8c565b611c058383611e88565b505050565b6060600560009054906101000a900460ff16611c5b576040517f08c379a0000000000000000000000000000000000000000000000000000000008152600401611c52906137c0565b60405180910390fd5b6006805480602002602001604051908101604052809291908181526020018280548015611ca757602002820191906000526020600020905b815481526020019060010190808311611c93575b5050505050905090565b60045481565b611ce17f72c3eec1760bf69946625c2d4fb8e44e2c806345041960b434674fb9ab3976cf336115ef565b611d20576040517f08c379a0000000000000000000000000000000000000000000000000000000008152600401611d1790613754565b60405180910390fd5b565b60007f01ffc9a7000000000000000000000000000000000000000000000000000000007bffffffffffffffffffffffffffffffffffffffffffffffffffffffff1916827bffffffffffffffffffffffffffffffffffffffffffffffffffffffff1916149050919050565b611d9d81611d98611e80565b61258e565b50565b611daa82826115ef565b611e7c57600160008084815260200190815260200160002060000160008373ffffffffffffffffffffffffffffffffffffffff1673ffffffffffffffffffffffffffffffffffffffff16815260200190815260200160002060006101000a81548160ff021916908315150217905550611e21611e80565b73ffffffffffffffffffffffffffffffffffffffff168173ffffffffffffffffffffffffffffffffffffffff16837f2f8788117e7eff1d82e926ec794901d17c78024a50270940304540a733656f0d60405160405180910390a45b5050565b600033905090565b611e9282826115ef565b15611f6557600080600084815260200190815260200160002060000160008373ffffffffffffffffffffffffffffffffffffffff1673ffffffffffffffffffffffffffffffffffffffff16815260200190815260200160002060006101000a81548160ff021916908315150217905550611f0a611e80565b73ffffffffffffffffffffffffffffffffffffffff168173ffffffffffffffffffffffffffffffffffffffff16837ff6391f5c32d9c69d2a47ea670b442974b53935d1edc7fd64eb21e047a839171b60405160405180910390a45b5050565b611f738282611da0565b5050565b60005b600380549050811015611fc557600060038281548110611f9d57611f9c613435565b5b9060005260206000209060040201600101819055508080611fbd906134ff565b915050611f7a565b5060005b6002805490508110156122245760006001600060028481548110611ff057611fef613435565b5b9060005260206000200160009054906101000a900473ffffffffffffffffffffffffffffffffffffffff1673ffffffffffffffffffffffffffffffffffffffff1673ffffffffffffffffffffffffffffffffffffffff16815260200190815260200160002090508060010160019054906101000a900460ff16801561208457508060010160009054906101000a900460ff16155b156122105760005b816002018054905081101561220e5760008260020182815481106120b3576120b2613435565b5b90600052602060002090602091828204019190069054906101000a900460ff1660ff169050600381815481106120ec576120eb613435565b5b906000526020600020906004020160020160009054906101000a900460ff166121fa5782600001546003828154811061212857612127613435565b5b90600052602060002090600402016001016000828254612148919061468e565b92505081905550846003828154811061216457612163613435565b5b906000526020600020906004020160030160006002878154811061218b5761218a613435565b5b9060005260206000200160009054906101000a900473ffffffffffffffffffffffffffffffffffffffff1673ffffffffffffffffffffffffffffffffffffffff1673ffffffffffffffffffffffffffffffffffffffff168152602001908152602001600020819055505061220e565b508080612206906134ff565b91505061208c565b505b50808061221c906134ff565b915050611fc9565b5050565b6000806000806000905060005b600380549050811015612288576003818154811061225657612255613435565b5b90600052602060002090600402016001015482612273919061468e565b91508080612280906134ff565b915050612235565b5060006002826122989190614922565b905060005b6003805490508110156123215781600382815481106122bf576122be613435565b5b906000526020600020906004020160010154111561230e57600181600383815481106122ee576122ed613435565b5b906000526020600020906004020160010154955095509550505050612330565b8080612319906134ff565b91505061229d565b50600080600094509450945050505b909192565b6000807fffffffffffffffffffffffffffffffffffffffffffffffffffffffffffffffff905060005b600380549050811015612410576003818154811061237f5761237e613435565b5b906000526020600020906004020160020160009054906101000a900460ff161580156123cf575081600382815481106123bb576123ba613435565b5b906000526020600020906004020160010154105b156123fd57600381815481106123e8576123e7613435565b5b90600052602060002090600402016001015491505b8080612408906134ff565b91505061235e565b508091505090565b600080600090505b6003805490508110156124b4576003818154811061244157612440613435565b5b906000526020600020906004020160020160009054906101000a900460ff161580156124925750826003828154811061247d5761247c613435565b5b90600052602060002090600402016001015414155b156124a15760009150506124ba565b80806124ac906134ff565b915050612420565b50600190505b919050565b60005b60038054905081101561258a57600381815481106124e3576124e2613435565b5b906000526020600020906004020160020160009054906101000a900460ff161580156125335750816003828154811061251f5761251e613435565b5b906000526020600020906004020160010154145b156125775760016003828154811061254e5761254d613435565b5b906000526020600020906004020160020160006101000a81548160ff0219169083151502179055505b8080612582906134ff565b9150506124c2565b5050565b61259882826115ef565b61260f576125a581612613565b6125b38360001c6020612640565b6040516020016125c4929190614a27565b6040516020818303038152906040526040517f08c379a00000000000000000000000000000000000000000000000000000000081526004016126069190614a61565b60405180910390fd5b5050565b60606126398273ffffffffffffffffffffffffffffffffffffffff16601460ff16612640565b9050919050565b6060600060028360026126539190614a83565b61265d919061468e565b67ffffffffffffffff81111561267657612675612af8565b5b6040519080825280601f01601f1916602001820160405280156126a85781602001600182028036833780820191505090505b5090507f3000000000000000000000000000000000000000000000000000000000000000816000815181106126e0576126df613435565b5b60200101907effffffffffffffffffffffffffffffffffffffffffffffffffffffffffffff1916908160001a9053507f78000000000000000000000000000000000000000000000000000000000000008160018151811061274457612743613435565b5b60200101907effffffffffffffffffffffffffffffffffffffffffffffffffffffffffffff1916908160001a905350600060018460026127849190614a83565b61278e919061468e565b90505b600181111561282e577f3031323334353637383961626364656600000000000000000000000000000000600f8616601081106127d0576127cf613435565b5b1a60f81b8282815181106127e7576127e6613435565b5b60200101907effffffffffffffffffffffffffffffffffffffffffffffffffffffffffffff1916908160001a905350600485901c94508061282790614add565b9050612791565b5060008414612872576040517f08c379a000000000000000000000000000000000000000000000000000000000815260040161286990614b52565b60405180910390fd5b8091505092915050565b82805482825590600052602060002090601f016020900481019282156129125791602002820160005b838211156128e357835183826101000a81548160ff021916908360ff16021790555092602001926001016020816000010492830192600103026128a5565b80156129105782816101000a81549060ff02191690556001016020816000010492830192600103026128e3565b505b50905061291f91906129f6565b5090565b82805461292f90613645565b90600052602060002090601f0160209004810192826129515760008555612998565b82601f1061296a57805160ff1916838001178555612998565b82800160010185558215612998579182015b8281111561299757825182559160200191906001019061297c565b5b5090506129a591906129f6565b5090565b8280548282559060005260206000209081019282156129e5579160200282015b828111156129e45782518255916020019190600101906129c9565b5b5090506129f291906129f6565b5090565b5b80821115612a0f5760008160009055506001016129f7565b5090565b6000604051905090565b600080fd5b600080fd5b60007fffffffff0000000000000000000000000000000000000000000000000000000082169050919050565b612a5c81612a27565b8114612a6757600080fd5b50565b600081359050612a7981612a53565b92915050565b600060208284031215612a9557612a94612a1d565b5b6000612aa384828501612a6a565b91505092915050565b60008115159050919050565b612ac181612aac565b82525050565b6000602082019050612adc6000830184612ab8565b92915050565b600080fd5b6000601f19601f8301169050919050565b7f4e487b7100000000000000000000000000000000000000000000000000000000600052604160045260246000fd5b612b3082612ae7565b810181811067ffffffffffffffff82111715612b4f57612b4e612af8565b5b80604052505050565b6000612b62612a13565b9050612b6e8282612b27565b919050565b600067ffffffffffffffff821115612b8e57612b8d612af8565b5b602082029050602081019050919050565b600080fd5b600060ff82169050919050565b612bba81612ba4565b8114612bc557600080fd5b50565b600081359050612bd781612bb1565b92915050565b6000612bf0612beb84612b73565b612b58565b90508083825260208201905060208402830185811115612c1357612c12612b9f565b5b835b81811015612c3c5780612c288882612bc8565b845260208401935050602081019050612c15565b5050509392505050565b600082601f830112612c5b57612c5a612ae2565b5b8135612c6b848260208601612bdd565b91505092915050565b600060208284031215612c8a57612c89612a1d565b5b600082013567ffffffffffffffff811115612ca857612ca7612a22565b5b612cb484828501612c46565b91505092915050565b6000819050919050565b612cd081612cbd565b8114612cdb57600080fd5b50565b600081359050612ced81612cc7565b92915050565b600060208284031215612d0957612d08612a1d565b5b6000612d1784828501612cde565b91505092915050565b600073ffffffffffffffffffffffffffffffffffffffff82169050919050565b6000612d4b82612d20565b9050919050565b612d5b81612d40565b82525050565b6000602082019050612d766000830184612d52565b92915050565b6000819050919050565b612d8f81612d7c565b8114612d9a57600080fd5b50565b600081359050612dac81612d86565b92915050565b600060208284031215612dc857612dc7612a1d565b5b6000612dd684828501612d9d565b91505092915050565b612de881612d7c565b82525050565b6000602082019050612e036000830184612ddf565b92915050565b612e1281612d40565b8114612e1d57600080fd5b50565b600081359050612e2f81612e09565b92915050565b600060208284031215612e4b57612e4a612a1d565b5b6000612e5984828501612e20565b91505092915050565b60008060408385031215612e7957612e78612a1d565b5b6000612e8785828601612d9d565b9250506020612e9885828601612e20565b9150509250929050565b600081519050919050565b600082825260208201905092915050565b60005b83811015612edc578082015181840152602081019050612ec1565b83811115612eeb576000848401525b50505050565b6000612efc82612ea2565b612f068185612ead565b9350612f16818560208601612ebe565b612f1f81612ae7565b840191505092915050565b612f3381612cbd565b82525050565b60006060820190508181036000830152612f538186612ef1565b9050612f626020830185612f2a565b612f6f6040830184612ab8565b949350505050565b600081519050919050565b600082825260208201905092915050565b6000819050602082019050919050565b600082825260208201905092915050565b6000612fbf82612ea2565b612fc98185612fa3565b9350612fd9818560208601612ebe565b612fe281612ae7565b840191505092915050565b6000612ff98383612fb4565b905092915050565b6000602082019050919050565b600061301982612f77565b6130238185612f82565b93508360208202850161303585612f93565b8060005b8581101561307157848403895281516130528582612fed565b945061305d83613001565b925060208a01995050600181019050613039565b50829750879550505050505092915050565b6000602082019050818103600083015261309d818461300e565b905092915050565b600080fd5b600067ffffffffffffffff8211156130c5576130c4612af8565b5b6130ce82612ae7565b9050602081019050919050565b82818337600083830152505050565b60006130fd6130f8846130aa565b612b58565b905082815260208101848484011115613119576131186130a5565b5b6131248482856130db565b509392505050565b600082601f83011261314157613140612ae2565b5b81356131518482602086016130ea565b91505092915050565b6000602082840312156131705761316f612a1d565b5b600082013567ffffffffffffffff81111561318e5761318d612a22565b5b61319a8482850161312c565b91505092915050565b60006020820190506131b86000830184612f2a565b92915050565b600060a0820190506131d36000830188612f2a565b6131e06020830187612ab8565b6131ed6040830186612ab8565b6131fa6060830185612ddf565b6132076080830184612d52565b9695505050505050565b600081519050919050565b600082825260208201905092915050565b6000819050602082019050919050565b61324681612cbd565b82525050565b6000613258838361323d565b60208301905092915050565b6000602082019050919050565b600061327c82613211565b613286818561321c565b93506132918361322d565b8060005b838110156132c25781516132a9888261324c565b97506132b483613264565b925050600181019050613295565b5085935050505092915050565b600060208201905081810360008301526132e98184613271565b905092915050565b7f4156000000000000000000000000000000000000000000000000000000000000600082015250565b6000613327600283612ead565b9150613332826132f1565b602082019050919050565b600060208201905081810360008301526133568161331a565b9050919050565b7f4400000000000000000000000000000000000000000000000000000000000000600082015250565b6000613393600183612ead565b915061339e8261335d565b602082019050919050565b600060208201905081810360008301526133c281613386565b9050919050565b7f5550324300000000000000000000000000000000000000000000000000000000600082015250565b60006133ff600483612ead565b915061340a826133c9565b602082019050919050565b6000602082019050818103600083015261342e816133f2565b9050919050565b7f4e487b7100000000000000000000000000000000000000000000000000000000600052603260045260246000fd5b7f4f43490000000000000000000000000000000000000000000000000000000000600082015250565b600061349a600383612ead565b91506134a582613464565b602082019050919050565b600060208201905081810360008301526134c98161348d565b9050919050565b7f4e487b7100000000000000000000000000000000000000000000000000000000600052601160045260246000fd5b600061350a82612cbd565b91507fffffffffffffffffffffffffffffffffffffffffffffffffffffffffffffffff820361353c5761353b6134d0565b5b600182019050919050565b600081519050919050565b600081905092915050565b6000819050602082019050919050565b61357681612ba4565b82525050565b6000613588838361356d565b60208301905092915050565b6000602082019050919050565b60006135ac82613547565b6135b68185613552565b93506135c18361355d565b8060005b838110156135f25781516135d9888261357c565b97506135e483613594565b9250506001810190506135c5565b5085935050505092915050565b600061360b82846135a1565b915081905092915050565b7f4e487b7100000000000000000000000000000000000000000000000000000000600052602260045260246000fd5b6000600282049050600182168061365d57607f821691505b6020821081036136705761366f613616565b5b50919050565b7f416363657373436f6e74726f6c3a2063616e206f6e6c792072656e6f756e636560008201527f20726f6c657320666f722073656c660000000000000000000000000000000000602082015250565b60006136d2602f83612ead565b91506136dd82613676565b604082019050919050565b60006020820190508181036000830152613701816136c5565b9050919050565b7f4e56000000000000000000000000000000000000000000000000000000000000600082015250565b600061373e600283612ead565b915061374982613708565b602082019050919050565b6000602082019050818103600083015261376d81613731565b9050919050565b7f4e20456e64656400000000000000000000000000000000000000000000000000600082015250565b60006137aa600783612ead565b91506137b582613774565b602082019050919050565b600060208201905081810360008301526137d98161379d565b9050919050565b600081549050919050565b60008190508160005260206000209050919050565b60008160001c9050919050565b600060ff82169050919050565b600061382d61382883613800565b61380d565b9050919050565b60008160081c9050919050565b600061385461384f83613834565b61380d565b9050919050565b60008160101c9050919050565b600061387b6138768361385b565b61380d565b9050919050565b60008160181c9050919050565b60006138a261389d83613882565b61380d565b9050919050565b60008160201c9050919050565b60006138c96138c4836138a9565b61380d565b9050919050565b60008160281c9050919050565b60006138f06138eb836138d0565b61380d565b9050919050565b60008160301c9050919050565b6000613917613912836138f7565b61380d565b9050919050565b60008160381c9050919050565b600061393e6139398361391e565b61380d565b9050919050565b60008160401c9050919050565b600061396561396083613945565b61380d565b9050919050565b60008160481c9050919050565b600061398c6139878361396c565b61380d565b9050919050565b60008160501c9050919050565b60006139b36139ae83613993565b61380d565b9050919050565b60008160581c9050919050565b60006139da6139d5836139ba565b61380d565b9050919050565b60008160601c9050919050565b6000613a016139fc836139e1565b61380d565b9050919050565b60008160681c9050919050565b6000613a28613a2383613a08565b61380d565b9050919050565b60008160701c9050919050565b6000613a4f613a4a83613a2f565b61380d565b9050919050565b60008160781c9050919050565b6000613a76613a7183613a56565b61380d565b9050919050565b60008160801c9050919050565b6000613a9d613a9883613a7d565b61380d565b9050919050565b60008160881c9050919050565b6000613ac4613abf83613aa4565b61380d565b9050919050565b60008160901c9050919050565b6000613aeb613ae683613acb565b61380d565b9050919050565b60008160981c9050919050565b6000613b12613b0d83613af2565b61380d565b9050919050565b60008160a01c9050919050565b6000613b39613b3483613b19565b61380d565b9050919050565b60008160a81c9050919050565b6000613b60613b5b83613b40565b61380d565b9050919050565b60008160b01c9050919050565b6000613b87613b8283613b67565b61380d565b9050919050565b60008160b81c9050919050565b6000613bae613ba983613b8e565b61380d565b9050919050565b60008160c01c9050919050565b6000613bd5613bd083613bb5565b61380d565b9050919050565b60008160c81c9050919050565b6000613bfc613bf783613bdc565b61380d565b9050919050565b60008160d01c9050919050565b6000613c23613c1e83613c03565b61380d565b9050919050565b60008160d81c9050919050565b6000613c4a613c4583613c2a565b61380d565b9050919050565b60008160e01c9050919050565b6000613c71613c6c83613c51565b61380d565b9050919050565b60008160e81c9050919050565b6000613c98613c9383613c78565b61380d565b9050919050565b60008160f01c9050919050565b6000613cbf613cba83613c9f565b61380d565b9050919050565b60008160f81c9050919050565b6000613ce6613ce183613cc6565b61380d565b9050919050565b6000613cf8826137e0565b613d028185613552565b935083613d0e846137eb565b600060011561403b575b8360016020038201101561403a578154613d3a88613d358361381a565b61356d565b602088019750613d5288613d4d83613841565b61356d565b602088019750613d6a88613d6583613868565b61356d565b602088019750613d8288613d7d8361388f565b61356d565b602088019750613d9a88613d95836138b6565b61356d565b602088019750613db288613dad836138dd565b61356d565b602088019750613dca88613dc583613904565b61356d565b602088019750613de288613ddd8361392b565b61356d565b602088019750613dfa88613df583613952565b61356d565b602088019750613e1288613e0d83613979565b61356d565b602088019750613e2a88613e25836139a0565b61356d565b602088019750613e4288613e3d836139c7565b61356d565b602088019750613e5a88613e55836139ee565b61356d565b602088019750613e7288613e6d83613a15565b61356d565b602088019750613e8a88613e8583613a3c565b61356d565b602088019750613ea288613e9d83613a63565b61356d565b602088019750613eba88613eb583613a8a565b61356d565b602088019750613ed288613ecd83613ab1565b61356d565b602088019750613eea88613ee583613ad8565b61356d565b602088019750613f0288613efd83613aff565b61356d565b602088019750613f1a88613f1583613b26565b61356d565b602088019750613f3288613f2d83613b4d565b61356d565b602088019750613f4a88613f4583613b74565b61356d565b602088019750613f6288613f5d83613b9b565b61356d565b602088019750613f7a88613f7583613bc2565b61356d565b602088019750613f9288613f8d83613be9565b61356d565b602088019750613faa88613fa583613c10565b61356d565b602088019750613fc288613fbd83613c37565b61356d565b602088019750613fda88613fd583613c5e565b61356d565b602088019750613ff288613fed83613c85565b61356d565b60208801975061400a8861400583613cac565b61356d565b6020880197506140228861401d83613cd3565b61356d565b60208801975060018301925050602081019050613d18565b5b6001156145265781548482101561406b5761405e886140598361381a565b61356d565b6020880197506001820191505b84821015614092576140858861408083613841565b61356d565b6020880197506001820191505b848210156140b9576140ac886140a783613868565b61356d565b6020880197506001820191505b848210156140e0576140d3886140ce8361388f565b61356d565b6020880197506001820191505b84821015614107576140fa886140f5836138b6565b61356d565b6020880197506001820191505b8482101561412e576141218861411c836138dd565b61356d565b6020880197506001820191505b84821015614155576141488861414383613904565b61356d565b6020880197506001820191505b8482101561417c5761416f8861416a8361392b565b61356d565b6020880197506001820191505b848210156141a3576141968861419183613952565b61356d565b6020880197506001820191505b848210156141ca576141bd886141b883613979565b61356d565b6020880197506001820191505b848210156141f1576141e4886141df836139a0565b61356d565b6020880197506001820191505b848210156142185761420b88614206836139c7565b61356d565b6020880197506001820191505b8482101561423f576142328861422d836139ee565b61356d565b6020880197506001820191505b84821015614266576142598861425483613a15565b61356d565b6020880197506001820191505b8482101561428d576142808861427b83613a3c565b61356d565b6020880197506001820191505b848210156142b4576142a7886142a283613a63565b61356d565b6020880197506001820191505b848210156142db576142ce886142c983613a8a565b61356d565b6020880197506001820191505b84821015614302576142f5886142f083613ab1565b61356d565b6020880197506001820191505b848210156143295761431c8861431783613ad8565b61356d565b6020880197506001820191505b84821015614350576143438861433e83613aff565b61356d565b6020880197506001820191505b848210156143775761436a8861436583613b26565b61356d565b6020880197506001820191505b8482101561439e576143918861438c83613b4d565b61356d565b6020880197506001820191505b848210156143c5576143b8886143b383613b74565b61356d565b6020880197506001820191505b848210156143ec576143df886143da83613b9b565b61356d565b6020880197506001820191505b84821015614413576144068861440183613bc2565b61356d565b6020880197506001820191505b8482101561443a5761442d8861442883613be9565b61356d565b6020880197506001820191505b84821015614461576144548861444f83613c10565b61356d565b6020880197506001820191505b848210156144885761447b8861447683613c37565b61356d565b6020880197506001820191505b848210156144af576144a28861449d83613c5e565b61356d565b6020880197506001820191505b848210156144d6576144c9886144c483613c85565b61356d565b6020880197506001820191505b848210156144fd576144f0886144eb83613cac565b61356d565b6020880197506001820191505b84821015614524576145178861451283613cd3565b61356d565b6020880197506001820191505b505b8694505050505092915050565b600061453f8284613ced565b915081905092915050565b7f4144000000000000000000000000000000000000000000000000000000000000600082015250565b6000614580600283612ead565b915061458b8261454a565b602082019050919050565b600060208201905081810360008301526145af81614573565b9050919050565b7f53656c6620440000000000000000000000000000000000000000000000000000600082015250565b60006145ec600683612ead565b91506145f7826145b6565b602082019050919050565b6000602082019050818103600083015261461b816145df565b9050919050565b7f4c6f6f7000000000000000000000000000000000000000000000000000000000600082015250565b6000614658600483612ead565b915061466382614622565b602082019050919050565b600060208201905081810360008301526146878161464b565b9050919050565b600061469982612cbd565b91506146a483612cbd565b9250827fffffffffffffffffffffffffffffffffffffffffffffffffffffffffffffffff038211156146d9576146d86134d0565b5b828201905092915050565b7f4e41000000000000000000000000000000000000000000000000000000000000600082015250565b600061471a600283612ead565b9150614725826146e4565b602082019050919050565b600060208201905081810360008301526147498161470d565b9050919050565b7f456e646564000000000000000000000000000000000000000000000000000000600082015250565b6000614786600583612ead565b915061479182614750565b602082019050919050565b600060208201905081810360008301526147b581614779565b9050919050565b600081549050919050565b60008190508160005260206000209050919050565b6000819050919050565b60006147f96147f483613800565b6147dc565b9050919050565b600061480c82546147e6565b9050919050565b6000600182019050919050565b600061482b826147bc565b614835818561321c565b9350614840836147c7565b8060005b838110156148785761485582614800565b61485f888261324c565b975061486a83614813565b925050600181019050614844565b5085935050505092915050565b600060608201905061489a6000830186612d52565b81810360208301526148ac8185614820565b90506148bb6040830184612f2a565b949350505050565b600060408201905081810360008301526148dd8185614820565b90506148ec6020830184612f2a565b9392505050565b7f4e487b7100000000000000000000000000000000000000000000000000000000600052601260045260246000fd5b600061492d82612cbd565b915061493883612cbd565b925082614948576149476148f3565b5b828204905092915050565b600081905092915050565b7f416363657373436f6e74726f6c3a206163636f756e7420000000000000000000600082015250565b6000614994601783614953565b915061499f8261495e565b601782019050919050565b60006149b582612ea2565b6149bf8185614953565b93506149cf818560208601612ebe565b80840191505092915050565b7f206973206d697373696e6720726f6c6520000000000000000000000000000000600082015250565b6000614a11601183614953565b9150614a1c826149db565b601182019050919050565b6000614a3282614987565b9150614a3e82856149aa565b9150614a4982614a04565b9150614a5582846149aa565b91508190509392505050565b60006020820190508181036000830152614a7b8184612ef1565b905092915050565b6000614a8e82612cbd565b9150614a9983612cbd565b9250817fffffffffffffffffffffffffffffffffffffffffffffffffffffffffffffffff0483118215151615614ad257614ad16134d0565b5b828202905092915050565b6000614ae882612cbd565b915060008203614afb57614afa6134d0565b5b600182039050919050565b7f537472696e67733a20686578206c656e67746820696e73756666696369656e74600082015250565b6000614b3c602083612ead565b9150614b4782614b06565b602082019050919050565b60006020820190508181036000830152614b6b81614b2f565b905091905056fea2646970667358221220e761b4d3882cbf8109505f9407da03c8344eb8f50450cae6c7af85aaf1f2fe4464736f6c634300080e0033a2646970667358221220cf18302d7aab31828f319986701455be13a4b14e4b7c8e323e45d9a05489eb1d64736f6c634300080e0033",
  "immutableReferences": {},
  "source": "// SPDX-License-Identifier: GPL-3.0\n\npragma solidity >=0.7.0 <0.9.0;\n\nimport \"./GoodVoting.sol\";\n\ncontract VotingEventManager {\n    struct VotingEvent {\n        string name;\n        address votingContract;\n        address hostAdmin;\n        uint[] winners;\n        uint winnerVoteCount;\n        bool isVotingEnded;\n    }\n\n    VotingEvent[] public votingEvents;\n    event VotingEventCreated(address newVotingAddress, address adminHost, string eventName);\n\n    function createVotingEvent(string memory eventName) public {\n        GoodVoting newGoodVoting = new GoodVoting(this);\n        newGoodVoting.grantRole(newGoodVoting.ADMIN_ROLE(), msg.sender);\n        newGoodVoting.revokeRole(newGoodVoting.DEFAULT_ADMIN_ROLE(), address(this));\n        \n        VotingEvent storage newVotingEvent = votingEvents.push();\n        newVotingEvent.name = eventName;\n        newVotingEvent.votingContract = address(newGoodVoting);\n        newVotingEvent.hostAdmin = msg.sender;\n        newVotingEvent.isVotingEnded = false;\n\n        emit VotingEventCreated(address(newGoodVoting), msg.sender, eventName);\n    }\n\n    function setWinner(address votingContract, uint[] memory _winners, uint _winnerVoteCount) external {\n        for (uint i = 0; i < votingEvents.length; i++) {\n            if (votingEvents[i].votingContract == votingContract) {\n                require(msg.sender == votingEvents[i].votingContract, \"NA.\");\n                votingEvents[i].winners = _winners;\n                votingEvents[i].winnerVoteCount = _winnerVoteCount;\n                votingEvents[i].isVotingEnded = true;\n            }\n        }\n    }\n    \n}\n",
  "sourcePath": "/Users/ivanchow/Desktop/Projects/goodvoting/contracts/VotingEventManager.sol",
  "compiler": {
    "name": "solc",
    "version": "0.8.14+commit.80d49f37.Emscripten.clang"
  },
  "schemaVersion": "3.4.13",
  "updatedAt": "2023-05-22T15:13:40.932Z",
  "networkType": "ethereum",
  "devdoc": {
    "kind": "dev",
    "methods": {},
    "version": 1
  },
  "userdoc": {
    "kind": "user",
    "methods": {},
    "version": 1
  }
}